:080000000C9458000C94000060
:100008000C9400000C9400000C9400000C94000068
:100018000C9400000C9400000C9400000C94000058
:100028000C9400000C9400000C9400000C948500C3
:100038000C9400000C94CA000C9400000C9400006E
:100048000C9400000C9400000C9400001027E803A6
:1000580064000A0001000010000110000100000007
:1000680000000000FDFF00FE000025640A00256472
:1000780000310074313A25642C74323A2564006DDD
:10008800313A25642C6D323A2564000080C00100A5
:10009800020066000A00040068000200600279009D
:1000A8000200870294000000F894EE27ECBBF1E010
:1000B800FBBFEBBFE5BF8DE0A2E0BB27ED938A95C0
:1000C800E9F780E098E0A0E6ED930197E9F7E6E923
:1000D800F0E085919591009761F0A591B591059013
:1000E8001590BF01F00105900D920197E1F7FB0112
:1000F800F0CFEFE5EDBFE8E0EEBFC0E6D2E00C944C
:100108001701AA93EA93FA93EFB7EA931A930A931B
:100118001BB10CB1E12FEC71B1F4EA2DA394F0E01E
:10012800EE58FD4F0083E8E0EA1509F4AA24A091EF
:100138007B02AF5FA0937B02A83029F4E0E0E09354
:100148007B02689420F8099119913EC01A93E091B6
:100158007B02E030E1F3E0917A02EF5FE0937A020C
:10016800E150F0E0EE58FD4F1081A0917A02A830DE
:1001780019F4E0E0E0937A02F894E0917B02E15010
:10018800E0937B027894E12F19910895AA93EA935A
:10019800FA93EFB7EA93E0918602E030A9F0E150D4
:1001A800E0938602E0918502EF5FE0938502E150DB
:1001B800F0E0E458FD4FE081ECB9A0918502A83049
:1001C80019F4E0E0E0938502E991EFBFF991E99134
:1001D800A9911895AA93A0918602A830E1F3F89402
:1001E800E0918602E03011F45D9918C0E091840234
:1001F800EF5FE0938402E150F0E0E458FD4FA881FE
:10020800A083A0918402A83019F4E0E0E09384026E
:10021800E0918602EF5FE093860202C0E881ECB9C4
:1002280078940C94B002E0E0EABBEBBBE7E0E7BBF4
:10023800E0E0E8BBE4BBE5BBE1BBE2BBE3BFE2BF98
:10024800ECBFEFBDEEBDEDBDECBDE7BDE6BDEBBD62
:10025800EABDE9BDE8BDE2BDE5BDE4BDE3BDE9BF7A
:10026800E5BFE4BFE2E0EBB9E8EDEAB9E6E8E0BDF6
:10027800E0E0E0BDE7E6E9B9E0E8E8B9E0E0E0BFE2
:10028800E6B9EDB9E6BFA8E03AD17894C0980E94E3
:100298002906E92D0E943006E4E0F0E060E070E015
:1002A8000E943E06C098C19AC298E2E7F0E0FA932D
:1002B800EA93EB2D0E943006E6E0F0E060E070E0A3
:1002C8000E943E06A0E6B2E00AD1E9E1F0E06E162F
:1002D8007F062CF4EAE0F0E00E9445062FC0E9E131
:1002E800F0E06E167F062CF0EEE1F0E0E615F7057B
:1002F8000CF405C0E2E3F0E00E9445061FC0EFE100
:10030800F0E06E167F062CF0E3E2F0E0E615F70564
:100318000CF405C0E6E9F0E00E9445060FC0E4E2EF
:10032800F0E06E167F062CF0EAEFF0E00E9445063A
:1003380005C0E0E0E0936C02E0936D02E0916C028E
:10034800F0916D02E0937002F0937102C09A0E94DE
:100358002906E82D0E943006ECE0F0E060E070E04D
:100368000E943E06E1E0F0E0EC15FD0531F5F301F1
:10037800E419F50931F4E0E0E0936E02E0936F02CE
:100388001BC0D301A419B509159719F4E2E3F0E0ED
:100398000FC0D301A419B5091A9719F4E6E9F0E0DA
:1003A80007C0D301A419B5091F9731F4EAEFF0E0AB
:1003B800E0936E02F0936F0205C0E0E0E0936E02F6
:1003C800E0936F02E2E7F0E0FA93EA930E944A06AC
:1003D80084E00E9458042696E2E6F2E0FA93EA9353
:1003E800EBE7F0E0FA93EA93F2010E945306F30177
:1003F8000E9453060E945806E2E6F2E0FA93EA9356
:10040800E7E8F0E0FA93EA93E0917002F091710264
:100418000E9453060E944A060E94580637CFFFCF13
:10042800AA93E5B3EF70AE2FE881E07FEA2BE5BB36
:100438008DE08A95F1F7AA9A8DE08A95F1F7AA9846
:100448008DE08A95F1F788C0AA93A881E9DFE88151
:10045800E295E883A881E4DF85E88A95F1F77CC016
:10046800AA93E881F0E0E957FD4FE081A981AE0F3A
:10047800EBDFE981E0938B02E881E0938C0222961E
:100488000895A2E00E946606ACE0DEDFA1E00E94CB
:100498006606E0E0E0938C02E0938B020895AA934D
:1004A800A881AA3031F0E0918D02A0918B02AE179D
:1004B80060F0E0E0EA93A0918C02AF5FA0938C0219
:1004C800CFDFA881AA3009F447C0E0918B02EF5F23
:1004D800E0938B02A89AA881B7DFA8983DC0BA9389
:1004E800AA931A93A981BA81ED91A983BA831E2F81
:1004F800E03019F0A12FD3DFF5CF188138C0AA93C7
:10050800E4B3E06FE4BBA29AA09AA19AAA98A8982B
:10051800A998E881E0938D02E058E0938902E88188
:10052800E054E0938A02A4E1B0E00E94CA060E9467
:100538006C060E946C060E946C06A0E271DF88ECD3
:1005480090E00197F1F7A8E27FDFA4E07DDFA5E85E
:100558007BDFA6E079DF95DF21960895BA93AA9309
:10056800AA810E94EE00A881B9810E947406239690
:100578000895BA93AA931A930A93AA81BB811296F3
:100588000E94E906309729F1AA81BB8114960E943E
:10059800E9068F01309761F00230E0E01E0780F035
:1005A800F80131978F01AA81BB811496ED93FC93D2
:1005B800AA81BB8112960E9474063197AC81A083F0
:1005C800AA81BB810E94E906FF2312F00E947406EB
:1005D80006C0AA81BB81EFEFFFEFED93FC93198171
:1005E800088196C1BA93AA9326970E94F60610E04E
:1005F800AC85BD85E0E0F0E0ED93FC93EA89FB89EA
:100608003196EA8BFB8B3197E4912E2FE03009F479
:1006180015C1E12FE03039F4253211F411E002C0A0
:100628000E947A060AC1E130A9F4253219F40E9421
:100638007A0602C112E040E000E02D3211F401E038
:10064800FCC02B3211F44BE2F8C0203211F440E226
:10065800F4C002C0E23039F450E013E0203311F462
:100668000068EBC003C0E33009F0E7C0203310F0A6
:100678002A3308F007C0AAE05A9F502DE22FE05312
:100688005E0FDBC0E22FE33649F40E948106E88959
:10069800F989A481AA930E948706CEC0E33741F462
:1006A8000E9481060E948D060E9410061E2F0AC015
:1006B800E03761F40E9481060E948D060E941C06A4
:1006C8001E2F086002600F7730E034C0E43611F066
:1006D800E93611F4046002C0E53731F4E4E5F0E0EE
:1006E800EE83FF8315E00CC0E83511F4086003C001
:1006F800E83709F0A1C0EEE5F0E0EE83FF8314E0EF
:1007080002FF14C00E9481060E949706AB85AA23A7
:100718003AF4EA85FB850E94D806EA87FB874DE212
:10072800403011F01F5F01C00B7F04C00E9481069A
:100738000E94970600FD11C0151778F407FF08C03E
:1007480002FF04C00B7F242F115001C020E301C019
:1007580020E20E947A065150EFCF312F01FF17C0D7
:100768003030A1F003FF06C0EE81FF812591EE83B2
:10077800FF8305C0AE81BF812D91AE83BF830E94E8
:100788007A06503009F051503150EACF4BC020E37F
:10079800EE81FF810E94ED06E887F987EE81FF81EF
:1007A8003296EE83FF83E885F985AA85BB85AE1767
:1007B800BF0750F02F5FA885B985EA85FB85EA1B3E
:1007C800FB0BEA87FB87EFCF2A3328F003FF02C031
:1007D800295F01C0295D04FD1AC0213320F4A885D2
:1007E800B985119709F409C0531710F000FF01C02B
:1007F80013C020E207FF0BC020E3006102FF07C01F
:100808000B7F4A930E948706503009F051500E948E
:100818007A06503009F051503150A885B9851297A1
:1008280008F0B5CF00FF08C0503031F05150E0E279
:10083800EA930E948706F8CF10E0E0CEAC85BD852C
:100848000E94E9060E94FD0664960895FF92F82E1C
:1008580026970E94F8060E949F06309719F4EFEF3A
:10086800FFEF1DC0DE0116960E94D4068D010E947E
:100878009F06EE83FF83E0E0E887E987DE011A96AA
:100888000E94A606EDEBF2E0FA93EA93DE011A96CF
:10089800A9DE9F01AE81BF81E0E0EC93F9010E94DF
:1008A800FF062A96FF900895FF92F82E26971A932E
:1008B8000A93DE0114960E94D4068D01E0E0EC83D1
:1008C800ED83EE83EF83DE0118960E94A606E2EB25
:1008D800F2E0FA93EA93DE01189684DE1981088122
:1008E8002896FF900895BA93AA931A93A981BA817A
:1008F800E0E0EC93AB81BC81EC911E2FE03019F065
:10090800E0E0EC9303C00E94AA001E2FE12F18819B
:1009180025960895FF92BA93AA9324970E94F60603
:10092800E0E0F0E0E887F9874E2FE889F989319609
:10093800E88BF98B3197E4913E2FE03009F425C11B
:100948000E94AF06C1F0EDB7FEB7FA93EA934F9352
:100958000E94B4064F913E2FE03019F00E94AF0676
:1009680009F407C00E94BA061CF4EFEFFFEF0FC1AD
:10097800EACF432F09C1353209F0EEC050E0E889CB
:10098800F9893591E88BF98B303310F03A3308F058
:1009980007C0AAE05A9F502DE32FE0535E0FEFCF18
:1009A800303009F4F2C0EDB7FEB7FA93EA934F93EB
:1009B8000E94B4064F912E2FAE2F0E94F605E0300C
:1009C80039F00E94BA061CF4EFEFFFEFE0C0EBCF5E
:1009D800203009F4D1C0422F503009F45FEFE32FE3
:1009E800E33699F40E94BF06EDB7FEB7FA93EA938F
:1009F8004F930E94B4064F91D801EC930E94BA0617
:100A08001CF4EFEFFFEFC3C0A1C0E33741F50E942C
:100A1800BF06E52F5150E030F1F0EDB7FEB7FA937D
:100A2800EA934F930E94B4064F913E2FE03019F09D
:100A38000E94AF0639F00E94BA061CF4EFEFFFEFF0
:100A4800A6C009C01F930F930F5F1F4FE32FAF91ED
:100A5800BF91EC93DECFD801E0E0EC9377C06894C7
:100A6800F1F8E894F2F8E32FE43611F0E93619F4D6
:100A7800E894F1F802C0E53711F42AE008C0E83735
:100A880011F420E104C0E53209F466C07EC0E0E05C
:100A9800EE83EF836894F0F8E52F5150E03009F4C5
:100AA80046C0EDB7FEB7FA93EA934F930E94B40697
:100AB8004F913E2FE13238F40E94BA061CF4EFEF52
:100AC800FFEF65C017C0F1FC08C06894F1F83D322B
:100AD80011F4F2F8E1CF3B32F9F2203131F4A32FCF
:100AE8000E940106E03031F009C0A32F0E94ED05F5
:100AF800E03021F4F0FC49C0432F19C0313610F022
:100B0800375505C0313410F0375301C03053E22F48
:100B1800AE81BF81F0E00E94E106DF01E32FF0E043
:100B2800EA0FFB1FEE83FF83E894F0F8B5CF0E942D
:100B3800BF06F2FE06C0EE81FF810E94D806EE8352
:100B4800FF83EE81FF81D801ED93FC93E885F98559
:100B58003196E887F98718C0EDB7FEB7FA93EA939C
:100B68004F930E94B4064F91E31771F00E94BA06A2
:100B78001CF4EFEFFFEF0BC0E885F985309719F407
:100B8800EFEFFFEF04C001C0D0CEE885F9850E94E1
:100B9800FD066296FF900895FF92F82E23971A9308
:100BA8000A93DE0111960E94D4068D01E0E0EB83E2
:100BB800EC83DE0115960E94A606E7E7F4E0FA93B7
:100BC800EA93DE011896A6DE198108812596FF9022
:100BD8000895AA93E1E0F991F03310F0FA3308F0A0
:100BE800EE270895AA93E1E0F991F03229F0F9305F
:100BF80010F0FE3008F0EE270895AA93E1E0F9918D
:100C0800F05340F0FA3038F0FF75F750FA3010F032
:100C1800F03108F0EE270895BA93AA93A991B991F3
:100C2800EE27FF276D91662311F03196FBCF0895CB
:100C3800BA93AA93AA27BB27E991F99105900020B6
:100C480011F01196FBCFFD010895C198C298E2E713
:100C5800F0E0FA93EA930895FF27662777270E9422
:100C6800F10684E00E9458042696E6E7F0E0FA933D
:100C7800EA9308950E94F10684E00E94D005269622
:100C88000895E0936C02F0936D020895E0916E026E
:100C9800F0916F020E94DC060E94F10608950E94FE
:100CA800DC060E94F106089588E00E942A042C962A
:100CB8000E944502A2E6B2E00E947302A4EFB1E0EE
:100CC8000C94CA060E942802A3E0B0E00C94CA065D
:100CD800A0E30E94140288EC90E00197F1F70895D0
:100CE800ED91FD913196FE93EE9308952A93AD858B
:100CF800BE85EF85F88909950895E889F9893497BB
:100D0800E88BF98B0895AD85BE85EF85F88909953F
:100D18000895A889B98914960E94E906EE83FF838D
:100D2800AE81BF810895A889B98914960E94E90601
:100D3800EA87FB870895DE011C960E94D4060E946C
:100D4800E90608950E94D4060E94E906FA93EA93F8
:100D58001A930A930895A32F0E94F605E030089588
:100D6800AC85BD85EE85FF8509950895AA85BB8567
:100D7800AC91A0300895EE85FF853497EE87FF8704
:100D8800AE85BF8514960D911C910895109639F083
:100D980080ED97E00197F1F7A8951197C9F70895A5
:100DA8000024AF0DB01D0895F195E195F040089528
:100DB8006F2F660F660B762F0895FA9FF02DEB9F25
:100DC800F00DEA9FE02DF10D0895ED91FC9111973A
:100DD80008950590F491E02D08957A936A93FA9313
:100DE800EA9308955A934A933A932A931A930A9343
:100DF80008955D814C813B812A811981088108957C
:00000001FF
