:0A0000000C944B000C9478000C9453
:10000A0000000C9400000C9400000C9400000C9466
:10001A0000000C9400000C9400000C9400000C9456
:10002A00CB000C949B000C9400000C9400000C94E0
:10003A0000000C9400000C9400000C9400000C9436
:10004A0000000C9400000C9400001027E8036400E0
:10005A000A00010000100001100001000000000069
:10006A0000000000000030303A3030002564203AA9
:10007A0020256420000080C00A00040066000500F4
:10008A00660270000200700280000000F894EE27F9
:10009A00ECBBF1E0FBBFEBBFE5BF8DE0A2E0BB2705
:1000AA00ED938A95E9F780E098E0A0E6ED93019751
:1000BA00E9F7E2E8F0E085919591009761F0A59162
:1000CA00B59105901590BF01F00105900D92019729
:1000DA00E1F7FB01F0CFEFE5EDBFE8E0EEBFC0E6E8
:1000EA00D2E00C94CC00EA93FA93EFB7EA93F301C7
:1000FA000E94F5036E2E7724E991EFBFF991E991F9
:10010A001895082C092829F0F40131974F0196987F
:10011A000CC00C2C0D2841F0F60131976F01EBE36E
:10012A00F0E04F01969801C0969A08950A921A92A1
:10013A00FA926A937A938A939A93AA93BA93EA93CE
:10014A00FA93EFB7EA93062C072891F4A0E6B2E0F7
:10015A000E949E03A0916002B0916102AE3AE1E072
:10016A00BE0731F4E0E0E0936002E0936102C9DF88
:10017A00E991EFBFF991E991B991A9919991899181
:10018A0079916991F9901990099018951895E0E07C
:10019A00EABBEBBBE7BBE8BBEFEFE4BBE0E0E5BBE8
:1001AA00E0E4E1BBE0E0E2BBE3E0E3BFE3E8E2BFB7
:1001BA00E0E0ECBFEFBDEEBDEDBDECBDE7BDE6BDD9
:1001CA00EBBDEABDE9BDE8BDE2BDE5BDE4BDE3BD09
:1001DA00E1E0E9BFEBB7E064EBBFE0E0E5BFE4BF15
:1001EA00E0E4EABFE0E0EAB9E0E8E8B9E0E0E0BF6D
:1001FA00E6B9EDB9E6BFA0E10E945603789449B288
:10020A005524E6B3F0E0E0936202F0936302A09112
:10021A006402B09165024A165B0619F4EA15FB05F9
:10022A0069F06201809062029090630240926402D7
:10023A0050926502A0906202B0906302E6E6F2E094
:10024A00FA93EA93E6E7F0E0FA93EA93F6010E945A
:10025A00F0030E940204F4010E94F0030E940204C7
:10026A0088E00E94B2022C96E0E0EA93A0E00E94A5
:10027A000603A6E6B2E00E944503C1CFFFCFBA93B8
:10028A00AA931A930A93AA81BB8112960E94FA032F
:10029A00309729F1AA81BB8114960E94FA038F0133
:1002AA00309761F00230E0E01E0780F0F8013197E4
:1002BA008F01AA81BB811496ED93FC93AA81BB811D
:1002CA0012960E949E033197AC81A083AA81BB81BA
:1002DA000E94FA03FF2312F00E949E0306C0AA811D
:1002EA00BB81EFEFFFEFED93FC931981088125960F
:1002FA000895BA93AA9326970E94070410E0AC8542
:10030A00BD85E0E0F0E0ED93FC93EA89FB89319644
:10031A00EA8BFB8B3197E4912E2FE03009F415C15B
:10032A00E12FE03039F4253211F411E002C00E94C5
:10033A00A4030AC1E130A9F4253219F40E94A403E6
:10034A0002C112E040E000E02D3211F401E0FCC0ED
:10035A002B3211F44BE2F8C0203211F440E2F4C01F
:10036A0002C0E23039F450E013E0203311F400689F
:10037A00EBC003C0E33009F0E7C0203310F02A33A2
:10038A0008F007C0AAE05A9F502DE22FE0535E0FF3
:10039A00DBC0E22FE33649F40E94AB03E889F9890E
:1003AA00A481AA930E94B103CEC0E33741F40E940C
:1003BA00AB030E94B7030E9485031E2F0AC0E037D1
:1003CA0061F40E94AB030E94B7030E9491031E2F9F
:1003DA00086002600F7730E034C0E43611F0E93685
:1003EA0011F4046002C0E53731F4E4E5F0E0EE838D
:1003FA00FF8315E00CC0E83511F4086003C0E83744
:10040A0009F0A1C0EEE5F0E0EE83FF8314E002FFFD
:10041A0014C00E94AB030E94C103AB85AA233AF41D
:10042A00EA85FB850E94EC03EA87FB874DE24030B0
:10043A0011F01F5F01C00B7F04C00E94AB030E9432
:10044A00C10300FD11C0151778F407FF08C002FFA9
:10045A0004C00B7F242F115001C020E301C020E209
:10046A000E94A4035150EFCF312F01FF17C0303043
:10047A00A1F003FF06C0EE81FF812591EE83FF8381
:10048A0005C0AE81BF812D91AE83BF830E94A403B4
:10049A00503009F051503150EACF4BC020E3EE8181
:1004AA00FF810E94FE03E887F987EE81FF81329679
:1004BA00EE83FF83E885F985AA85BB85AE17BF075A
:1004CA0050F02F5FA885B985EA85FB85EA1BFB0BEF
:1004DA00EA87FB87EFCF2A3328F003FF02C0295FA0
:1004EA0001C0295D04FD1AC0213320F4A885B9850D
:1004FA00119709F409C0531710F000FF01C013C087
:10050A0020E207FF0BC020E3006102FF07C00B7F58
:10051A004A930E94B103503009F051500E94A4033B
:10052A00503009F051503150A885B985129708F01A
:10053A00B5CF00FF08C0503031F05150E0E2EA93E5
:10054A000E94B103F8CF10E0E0CEAC85BD850E94D1
:10055A00FA030E940E0464960895FF92F82E2697D5
:10056A000E9409040E94C903309719F4EFEFFFEFC4
:10057A0023C0DE0116960E94E8038D010E94C9037A
:10058A00EE83FF83E0E0E887E987DE011A960E949E
:10059A00E8030E94FA03FA93EA931A930A93E4E4AB
:1005AA00F1E0FA93EA93DE011A96A3DE9F01AE8187
:1005BA00BF81E0E0EC93F9010E9410042A96FF90B3
:1005CA000895AA93E5B3EF70AE2FE881E07FEA2B96
:1005DA00E5BB8DE08A95F1F7AA9A8DE08A95F1F745
:1005EA00AA988DE08A95F1F789C0AA93A881E9DFD4
:1005FA00E881E295E883A881E4DF85E88A95F1F746
:10060A007DC0AA93E881F0E0E059FD4FE081A9811D
:10061A00AE0FEBDFE981E0937402E881E0937502A3
:10062A0022960895A2E00E94D003ACE0DEDFA1E0AA
:10063A000E94D003E0E0E0937502E093740208950B
:10064A00AA93A881AA3031F0E0917602A0917402AF
:10065A00AE1760F0E0E0EA93A0917502AF5FA09355
:10066A007502CFDFA881AA3009F448C0E09174026C
:10067A00EF5FE0937402A89AA881B7DFA8983EC0FA
:10068A00BA93AA931A93A981BA81ED91A983BA83DD
:10069A001E2FE03019F0A12FD3DFF5CF1881239652
:1006AA000895AA93E4B3E06FE4BBA29AA09AA19A30
:1006BA00AA98A898A998E881E0937602E058E0936E
:1006CA007202E881E054E0937302A4E1B0E00E9470
:1006DA00DE030E94D6030E94D6030E94D603A0E23C
:1006EA0070DF88EC90E00197F1F7A8E27EDFA4E0E2
:1006FA007CDFA5E87ADFA6E078DF94DF219608950B
:10070A00BA93AA93A991B991EE27FF276D9166230F
:10071A0011F03196FBCF0895BA93AA93AA27BB2763
:10072A00E991F9910590002011F01196FBCFFD0196
:10073A000895ED91FD913196FE93EE9308952A93D3
:10074A00AD85BE85EF85F88909950895E889F98907
:10075A003497E88BF98B0895AD85BE85EF85F889C6
:10076A0009950895A889B98914960E94FA03EE8317
:10077A00FF83AE81BF810895A889B98914960E9422
:10078A00FA03EA87FB870895DE011C960E94E803B4
:10079A000E94FA0308950E94FA02A3E0B0E00C94C2
:1007AA00DE03A0E30E94E60288EC90E00197F1F7ED
:1007BA000895109639F080ED97E00197F1F7A89522
:1007CA001197C9F708950024AF0DB01D0895F1954A
:1007DA00E195F04008956F2F660F660B762F089506
:1007EA00EF2BE1E009F0E0E00895ED91FC9111971B
:1007FA0008950590F491E02D08957A936A93FA93F7
:10080A00EA9308955A934A933A932A931A930A9326
:10081A0008955D814C813B812A811981088108955F
:00000001FF
