:0E0000000C9442000C9400000C9400000C9430
:10000E0000000C9400000C9400000C9400000C9462
:10001E0000000C9400000C9400000C9400000C9452
:10002E0000000C9400000C946F000C9400000C94D3
:10003E00AB000C9400000C9400000C9400000C9487
:10004E0000000C9400001027E80364000A00010071
:10005E000010000110000100000000000000000070
:10006E0080C0010002006600060004006800020065
:10007E0070026E000000F894EE27ECBBF1E0FBBFBF
:10008E00EBBFE5BF8DE0A2E0BB27ED938A95E9F7C4
:10009E0080E098E0A0E6ED930197E9F7E0E7F0E065
:1000AE0085919591009761F0A591B5910590159068
:1000BE00BF01F00105900D920197E1F7FB01F0CF22
:1000CE00EFE5EDBFE8E0EEBFC0E6D2E00C94DC0059
:1000DE000A921A92FA926A937A938A939A93AA93AD
:1000EE00BA93EA93FA93EFB7EA931A930A931BB172
:1000FE000CB1E7E0E51521F4A0E6B2E00E945A014A
:10010E00E12FEC7189F4E52D5394F0E0E05AFD4FA8
:10011E000083E8E0E51509F455247394E8E0E7154B
:10012E0019F47724689420F809911991E991EFBF99
:10013E00F991E991B991A9919991899179916991E1
:10014E00F990199009901895EA93FA93EFB7EA93FC
:10015E00882061F08A94E92D9394F0E0E859FD4FE0
:10016E00E081ECB9E8E0E91509F49924E991EFBFD3
:10017E00F991E9911895AA93E8E0E815E9F3F89456
:10018E00882011F45D990DC0E62D6394F0E0E859D6
:10019E00FD4FA881A083E8E0E61509F46624839458
:1001AE0002C0E881ECB97894BBC0E0E0EABBEBBBDF
:1001BE00E1E0E7BBE0E0E8BBE4BBE5BBE1BBE2BBF3
:1001CE00EBB9E8EDEAB9E6E8E0BDE0E0E0BDE7E670
:1001DE00E9B9A0E179D07894A8E60E949901A5E644
:1001EE000E949901ACE60E949901ACE60E94990129
:1001FE00AFE60E949901AFE60E949901AFE60E9418
:10020E009901AFE6B8DFFFCFFFCFAA93E5B3EF704A
:10021E00AE2FE881E07FEA2BE5BB8DE08A95F1F702
:10022E00AA9A8DE08A95F1F7AA988DE08A95F1F752
:10023E0077C0AA93A881E9DFE881E295E883A881D7
:10024E00E4DF85E88A95F1F76BC0AA93E881F0E0C8
:10025E00E059FD4FE081A981AE0FEBDFB980A88098
:10026E0022960895A2E00E949F01ACE0E2DFA1E099
:10027E000E949F01E0E0AE2EBE2E0895AA93A881A3
:10028E00AA3011F0BD1448F0E0E0EA93A394AA2D31
:10029E00DCDFA881AA3009F443C0B394A89AA881E0
:1002AE00C8DFA8983DC0BA93AA931A93A981BA81C0
:1002BE00ED91A983BA831E2FE03019F0A12FDEDF56
:1002CE00F5CF188123960895AA93E4B3E06FE4BBAB
:1002DE00A29AA09AA19AAA98A898A998D880E881DB
:1002EE00E058E0937202E881E054E0937302A4E1D7
:1002FE00B0E00E94AD010E94A5010E94A5010E94DE
:10030E00A501A0E282DF88EC90E00197F1F7A8E268
:10031E0090DFA4E08EDFA5E88CDFA6E08ADFA2DF07
:10032E00219608950E94C200A4E6B0E00C94AD019F
:10033E000E942001A3E0B0E00C94AD01A0E30E9466
:10034E000C0188EC90E00197F1F70895109639F0C2
:10035E0080ED97E00197F1F7A8951197C9F70895E9
:00000001FF
