:0C0000000C943E000C9400000C940000D6
:10000C000C9400000C9400000C9400000C94000064
:10001C000C9400000C9400000C9400000C94000054
:10002C000C9400000C9400000C9400000C94000044
:10003C000C9400000C9400000C9400000C94000034
:10004C000C9400000C9400001027E80364000A00D4
:10005C0001000010000110000100FE000000000073
:10006C0025640025640A00000600040066000000F8
:10007C00F894EE27ECBBF1E0FBBFEBBFE5BF8DE0E6
:10008C00A2E0BB27ED938A95E9F780E098E0A0E623
:10009C00ED930197E9F7E4E7F0E0859195910097EE
:1000AC0061F0A591B59105901590BF01F0010590F7
:1000BC000D920197E1F7FB01F0CFEFE5EDBFE8E022
:1000CC00EEBFC0E6D2E00C947900AA93E881E7B9C0
:1000DC0083E08A95F1F7369A349BFECF349AE4B1DB
:1000EC00F5B10C94CA00E0E0EABBEBBBE8E0E7BB7F
:1000FC00E0E0E8BBE4BBE5BBE1BBE2BBE9E6E3BFA8
:10010C00E0E0E2BFECBFE9BFEBB9E8E1EAB9E6E851
:10011C00E0BDE0E0E0BDE6E0E9B9E0E0E7B9E1EA46
:10012C00E6B9E0E0E0BF0E94DD034814590409F58C
:10013C00A0E0CBDF662777270E949B04DF01CB0171
:10014C00ECEBF4E763E070E40E94C9040E946404E1
:10015C003F01EFE6F0E0FA93EA93F3010E941E05EB
:10016C000E94330584E00E940D0226960E94DD0356
:10017C008CBED9CFFFCF5F9BFECFECB10895AA9375
:10018C005D9BFECFE881ECB921960895BA93AA93B2
:10019C00AA81F5DFA881B981ED91FD913196FE938D
:1001AC00EE9323960895BA93AA9326970E94380546
:1001BC0010E0AC85BD85E0E0F0E0ED93FC93EA89BE
:1001CC00FB893196EA8BFB8B3197E4912E2FE03033
:1001DC0009F415C1E12FE03039F4253211F411E0A6
:1001EC0002C00E94EC030AC1E130A9F4253219F4D3
:1001FC000E94EC0302C112E040E000E02D3211F449
:10020C0001E0FCC02B3211F44BE2F8C0203211F4A7
:10021C0040E2F4C002C0E23039F450E013E0203385
:10022C0011F40068EBC003C0E33009F0E7C02033E1
:10023C0010F02A3308F007C0AAE05A9F502DE22F85
:10024C00E0535E0FDBC0E22FE33649F40E94F30368
:10025C00E889F989A481AA930E94F903CEC0E337F7
:10026C0041F40E94F3030E94FF030E94C4031E2F5B
:10027C000AC0E03761F40E94F3030E94FF030E945E
:10028C00D0031E2F086002600F7730E034C0E436D4
:10029C0011F0E93611F4046002C0E53731F4E4E5FD
:1002AC00F0E0EE83FF8315E00CC0E83511F4086034
:1002BC0003C0E83709F0A1C0EEE5F0E0EE83FF8360
:1002CC0014E002FF14C00E94F3030E940904AB85E2
:1002DC00AA233AF4EA85FB850E941205EA87FB877C
:1002EC004DE2403011F01F5F01C00B7F04C00E9433
:1002FC00F3030E94090400FD11C0151778F407FFE1
:10030C0008C002FF04C00B7F242F115001C020E352
:10031C0001C020E20E94EC035150EFCF312F01FFBE
:10032C0017C03030A1F003FF06C0EE81FF8125918C
:10033C00EE83FF8305C0AE81BF812D91AE83BF8359
:10034C000E94EC03503009F051503150EACF4BC0B1
:10035C0020E3EE81FF810E942F05E887F987EE816B
:10036C00FF813296EE83FF83E885F985AA85BB85EC
:10037C00AE17BF0750F02F5FA885B985EA85FB85BE
:10038C00EA1BFB0BEA87FB87EFCF2A3328F003FF2E
:10039C0002C0295F01C0295D04FD1AC0213320F47D
:1003AC00A885B985119709F409C0531710F000FFFF
:1003BC0001C013C020E207FF0BC020E3006102FF65
:1003CC0007C00B7F4A930E94F903503009F051503B
:1003DC000E94EC03503009F051503150A885B9857A
:1003EC00129708F0B5CF00FF08C0503031F05150D3
:1003FC00E0E2EA930E94F903F8CF10E0E0CEAC857E
:10040C00BD850E942B050E943F0564960895FF92BE
:10041C00F82E26971A930A93DE0114960E940E0565
:10042C008D01E0E0EC83ED83EE83EF83DE01189623
:10043C000E941104ECECF0E0FA93EA93DE011896BA
:10044C00B2DE198108812896FF900895BA93AA9379
:10045C001A93A981BA81E0E0EC93AB81BC81EC9159
:10046C001E2FE03019F0E0E0EC9302C084DE1E2F6A
:10047C00E12F188125960895FF92BA93AA93249799
:10048C000E943805E0E0F0E0E887F9874E2FE88914
:10049C00F9893196E88BF98B3197E4913E2FE03056
:1004AC0009F425C10E941A04C1F0EDB7FEB7FA9306
:1004BC00EA934F930E941F044F913E2FE03019F0A6
:1004CC000E941A0409F407C00E9425041CF4EFEFE3
:1004DC00FFEF0FC1EACF432F09C1353209F0EEC04F
:1004EC0050E0E889F9893591E88BF98B303310F0BD
:1004FC003A3308F007C0AAE05A9F502DE32FE0537F
:10050C005E0FEFCF303009F4F2C0EDB7FEB7FA93BF
:10051C00EA934F930E941F044F912E2FAE2F0E94EF
:10052C00AA03E03039F00E9425041CF4EFEFFFEF32
:10053C00E0C0EBCF203009F4D1C0422F503009F489
:10054C005FEFE32FE33699F40E942A04EDB7FEB770
:10055C00FA93EA934F930E941F044F91D801EC93A6
:10056C000E9425041CF4EFEFFFEFC3C0A1C0E337DA
:10057C0041F50E942A04E52F5150E030F1F0EDB71F
:10058C00FEB7FA93EA934F930E941F044F913E2FAC
:10059C00E03019F00E941A0439F00E9425041CF472
:1005AC00EFEFFFEFA6C009C01F930F930F5F1F4F14
:1005BC00E32FAF91BF91EC93DECFD801E0E0EC9349
:1005CC0077C06894F1F8E894F2F8E32FE43611F070
:1005DC00E93619F4E894F1F802C0E53711F42AE091
:1005EC0008C0E83711F420E104C0E53209F466C014
:1005FC007EC0E0E0EE83EF836894F0F8E52F515075
:10060C00E03009F446C0EDB7FEB7FA93EA934F9386
:10061C000E941F044F913E2FE13238F40E942504B2
:10062C001CF4EFEFFFEF65C017C0F1FC08C0689435
:10063C00F1F83D3211F4F2F8E1CF3B32F9F220310E
:10064C0031F4A32F0E94B503E03031F009C0A32F81
:10065C000E94A103E03021F4F0FC49C0432F19C0E3
:10066C00313610F0375505C0313410F0375301C016
:10067C003053E22FAE81BF81F0E00E942305DF01F1
:10068C00E32FF0E0EA0FFB1FEE83FF83E894F0F812
:10069C00B5CF0E942A04F2FE06C0EE81FF810E94B3
:1006AC001205EE83FF83EE81FF81D801ED93FC935D
:1006BC00E885F9853196E887F98718C0EDB7FEB75C
:1006CC00FA93EA934F930E941F044F91E31771F032
:1006DC000E9425041CF4EFEFFFEF0BC0E885F985B1
:1006EC00309719F4EFEFFFEF04C001C0D0CEE885CE
:1006FC00F9850E943F056296FF900895FF92F82EAF
:10070C0023971A930A93DE0111960E940E058D0110
:10071C00E0E0EB83EC83DE0115960E941104ECE221
:10072C00F2E0FA93EA93DE011896A6DE19810881AD
:10073C002596FF900895AA93E1E0F991F03310F01B
:10074C00FA3308F0EE270895AA93E1E0F991F0321C
:10075C0029F0F93010F0FE3008F0EE270895AA9336
:10076C00E1E0F991F05340F0FA3038F0FF75F750B2
:10077C00FA3010F0F03108F0EE270895BA93AA93EE
:10078C00A991B991EE27FF276D91662311F031964F
:10079C00FBCF0895BA93AA93AA27BB27E991F991A5
:1007AC000590002011F01196FBCFFD010895ECE6A9
:1007BC00F0E0FA93EA93E8E0F0E060E070E00E9489
:1007CC00330584E00E948403269608952A93AD8510
:1007DC00BE85EF85F88909950895E889F9893497DC
:1007EC00E88BF98B0895AD85BE85EF85F889099561
:1007FC000895A889B98914960E942B05EE83FF836E
:10080C00AE81BF810895A889B98914960E942B05E1
:10081C00EA87FB8708950E940E050E942B05FA9328
:10082C00EA931A930A930895A32F0E94AA03E03027
:10083C000895AC85BD85EE85FF8509950895AA853B
:10084C00BB85AC91A0300895EE85FF853497EE877B
:10085C00FF87AE85BF8514960D911C910895552385
:10086C0042F4503811F4E0FF04C03196691F791F2F
:10087C006BF050E8572711F45F9373C05F3F31F072
:10088C00660F000C57956795752F08955F930020A0
:10089C000AF073C06CC050E8192E1522880F991FEE
:1008AC009527550F879550E8072E0522660F771F61
:1008BC007527550F67950895689401C0E8945F9368
:1008CC00F2DF703818F07F3F08F44BC056E1571B2D
:1008DC00AAF4519558300EF4593030F0EFEFFFEF89
:1008EC006FEF7FE777F91AC077275523B9F0EE0F32
:1008FC00FF1F661F771F5A95D1F710C07727583006
:10090C0028F0EF2FF62F672F5850F9CF552331F0E1
:10091C0076956795F795E7955A95D1F700200AF4E7
:10092C007FD05F910895689401C0E894309760403F
:10093C007040B1F0002426F0772312F4009470D0AC
:10094C00172E7EE1112032F07A95EE0FFF1F661FF5
:10095C00111CF9CFEF2FF62F612D5F938ADF5F917A
:10096C000895EE27FF27662777275F910895EFEF0D
:10097C00FFEF6FE77FEF5F910895EFEFFFEF6FE70A
:10098C007FE75F9108955F9386DF703821F4112023
:10099C000AF4EDCFF2CF903809F4E3CF0124089498
:1009AC00970B1BF4D4F30020F3CF792F1F932F93C5
:1009BC003F934F9311241127222733274427552780
:1009CC0090E2AE17BF078607410730F0AE1BBF0B96
:1009DC00860B410B089401C08894551F221F331FAE
:1009EC00111CAA1FBB1F881F441F9A9551F7F901B0
:1009FC00612D4F913F912F911F91662332F0550F2E
:100A0C00EE1FFF1F661F7A9543F229DF5F91089551
:100A1C000024AF0DB01D0895F195E195F0400895B7
:100A2C00F09560957095E195FF4F6F4F7F4F08954E
:100A3C006F2F660F660B762F0895FA9FF02DEB9FA4
:100A4C00F00DEA9FE02DF10D0895ED91FC911197B9
:100A5C0008950590F491E02D08957A936A93FA9392
:100A6C00EA9308955A934A933A932A931A930A93C2
:100A7C0008955D814C813B812A81198108810895FB
:00000001FF
