:100000000C9440000C9400000C9400000C94000030
:100010000C9400000C9400000C9400000C94000060
:100020000C9400000C9400000C9400000C94000050
:100030000C9400000C946D000C9400000C940000D3
:100040000C9400000C9400000C9400000C94000030
:100050000C9400001027E80364000A00010000105F
:10006000000110000100000000000000000000007E
:1000700000000100020066000A00040068000000A1
:10008000F894EE27ECBBF1E0FBBFEBBFE5BF8DE0E2
:10009000A2E0BB27ED938A95E9F780E098E0A0E61F
:1000A000ED930197E9F7E2E7F0E0859195910097EC
:1000B00061F0A591B59105901590BF01F0010590F3
:1000C0000D920197E1F7FB01F0CFEFE5EDBFE8E01E
:1000D000EEBFC0E6D2E00C949A00EA93FA93EFB731
:1000E000EA931A930A931BB10CB1E12FEC7189F4D6
:1000F000EB2DB394F0E0E05AFD4F0083E8E0EB1500
:1001000009F4BB24D394E8E0ED1519F4DD246894D8
:1001100020F80D3D21F4E1E0F0E03F0104C00F3D87
:1001200011F46624772409911991E991EFBFF991AF
:10013000E9911895E0E0EABBEBBBE7BBE8BBE3E085
:10014000E4BBE0E0E5BBE1BBE2BBE3BFE2BFECBF89
:10015000EFBDEEBDEDBDECBDE7BDE6BDEBBDEABD5F
:10016000E9BDE8BDE2BDE5BDE4BDE3BDE9BFE5BF76
:10017000E4BFEBB9E0E9EAB9E6E8E0BDE0E0E0BD04
:10018000E3E3E9B9E0E8E8B9E0E0E0BFE6B9EDB9FA
:10019000E6BF7894A99AA898E1E0F0E0E615F705A3
:1001A00019F4A89AA99802C0A898A99AF5CFFFCFE8
:00000001FF
