:040000000C942A0032
:100004000C9445000C944E000C9400000C940000D9
:100014000C9400000C9400000C9400000C9400005C
:100024000C9400000C9400000C9400000C9400004C
:100034000C9400000C9400000C9400000C9400003C
:100044000C9400000C9400000C9400000C9400002C
:10005400F894EE27ECBBF1E0FBBFEBBFE5BF8DE00E
:10006400A2E0BB27ED938A95E9F780E098E0A0E64B
:10007400ED930197E9F7EFE5EDBFE8E0EEBFC0E6E9
:10008400D2E00C945B00EA93EFB7EA93ECB7E65F37
:10009400ECBFE3B5E65F08C0EA93EFB7EA93ECB7C9
:1000A400EA50ECBFE3B5EA50E3BDE991EFBFE99153
:1000B4001895E0E8EABBE0E0EBBBE8E0E7BBE0E092
:1000C400E8BBE4BBE5BBE0E8E1BBE0E0E2BBE3E6C0
:1000D400E3BFE0E0E2BFE0E3ECBFE0E0E2BDECE67A
:1000E400E5BDE0E0E4BDE0E3E3BDE0E0E9BFEBB79C
:1000F400E06CEBBFEDE0E5BFE0E0E4BFE0ECEABFBD
:100104007894CE9B02C0DF9A01C0DF98FACFFFCF6C
:00000001FF
