:080000000C9441000C94000077
:100008000C9400000C9400000C9400000C94000068
:100018000C9400000C9400000C9400000C94000058
:100028000C9400000C9400000C9400000C94000048
:100038000C9400000C9400000C9400000C94000038
:100048000C946E000C9400000C9400001027E80338
:1000580064000A0001000010000110000100000007
:100068000025640080C002000400660001006002F0
:100078006800020061026C000000F894EE27ECBBF7
:10008800F1E0FBBFEBBFE5BF8DE0A2E0BB27ED933E
:100098008A95E9F780E098E0A0E6ED930197E9F703
:1000A800EEE6F0E085919591009761F0A591B59104
:1000B80005901590BF01F00105900D920197E1F7A9
:1000C800FB01F0CFEFE5EDBFE8E0EEBFC0E6D2E020
:1000D8000C94A8000A921A92FA926A937A938A93D5
:1000E8009A93AA93BA93EA93FA93EFB7EA931A9377
:1000F8000A9300E612E0AAE0B0E00E94420363D04F
:100108001A930A93E9E6F0E0FA93EA93F2010E945F
:1001180054030E94610384E00E94BB022896F20106
:100128003A962F01D80170D009911991E991EFBF42
:10013800F991E991B991A9919991899179916991E7
:10014800F990199009901895E0E0EABBEBBBE7BB82
:10015800E8BBE4BBE5BBE1BBE2BBE8E0E8B9E0E053
:10016800E0BFA0E162D07894FFCFFFCFAA93E5B3B8
:10017800EF70AE2FE881E07FEA2BE5BB8DE08A9532
:10018800F1F7AA9A8DE08A95F1F7AA988DE08A95F9
:10019800F1F777C0AA93A881E9DFE881E295E883BF
:1001A800A881E4DF85E88A95F1F76BC0AA93E88116
:1001B800F0E0EF59FD4FE081A981AE0FEBDF7980C8
:1001C800688022960895A2E00E940803ACE0E2DF6E
:1001D800A1E00E940803E0E06E2E7E2E0895AA9307
:1001E800A881AA3011F0791448F0E0E0EA9363940A
:1001F800A62DDCDFA881AA3009F443C07394A89A1D
:10020800A881C8DFA8983DC0BA93AA931A93A98178
:10021800BA81ED91A983BA831E2FE03019F0A12F7E
:10022800DEDFF5CF188123960895AA93E4B3E06F33
:10023800E4BBA29AA09AA19AAA98A898A99898808B
:10024800E881E058E0936302E881E054E0936402B7
:10025800A4E1B0E00E9442030E940E030E940E0334
:100268000E940E03A0E282DF88EC90E00197F1F78C
:10027800A8E290DFA4E08EDFA5E88CDFA6E08ADFA5
:10028800A2DF21960895BA93AA931A930A93AA8192
:10029800BB8112960E945903309759F1AA81BB81FC
:1002A80014960E9459038F01309761F00230E0E004
:1002B8001E0798F0F80131978F01AA81BB81149627
:1002C800ED93FC93AA81BB811296ED91FD91319635
:1002D800FE93EE933197AC81A083AA81BB810E94E3
:1002E8005903FF232AF0ED91FD913196FE93EE9389
:1002F80006C0AA81BB81EFEFFFEFED93FC93198154
:10030800088125960895BA93AA9326970E946603B2
:1003180010E0AC85BD85E0E0F0E0ED93FC93EA8960
:10032800FB893196EA8BFB8B3197E4912E2FE030D5
:1003380009F415C1E12FE03039F4253211F411E048
:1003480002C00E9416030AC1E130A9F4253219F44B
:100358000E94160302C112E040E000E02D3211F4C1
:1003680001E0FCC02B3211F44BE2F8C0203211F44A
:1003780040E2F4C002C0E23039F450E013E0203328
:1003880011F40068EBC003C0E33009F0E7C0203384
:1003980010F02A3308F007C0AAE05A9F502DE22F28
:1003A800E0535E0FDBC0E22FE33649F40E941D03E1
:1003B800E889F989A481AA930E942303CEC0E33770
:1003C80041F40E941D030E9429030E94EF021E2F80
:1003D8000AC0E03761F40E941D030E9429030E94AD
:1003E800FB021E2F086002600F7730E034C0E4364D
:1003F80011F0E93611F4046002C0E53731F4E4E5A0
:10040800F0E0EE83FF8315E00CC0E83511F40860D6
:1004180003C0E83709F0A1C0EEE5F0E0EE83FF8302
:1004280014E002FF14C00E941D030E943303AB8531
:10043800AA233AF4EA85FB850E945003EA87FB87E2
:100448004DE2403011F01F5F01C00B7F04C00E94D5
:100458001D030E94330300FD11C0151778F407FF30
:1004680008C002FF04C00B7F242F115001C020E3F5
:1004780001C020E20E9416035150EFCF312F01FF37
:1004880017C03030A1F003FF06C0EE81FF8125912F
:10049800EE83FF8305C0AE81BF812D91AE83BF83FC
:1004A8000E941603503009F051503150EACF4BC02A
:1004B80020E3EE81FF810E945D03E887F987EE81E2
:1004C800FF813296EE83FF83E885F985AA85BB858F
:1004D800AE17BF0750F02F5FA885B985EA85FB8561
:1004E800EA1BFB0BEA87FB87EFCF2A3328F003FFD1
:1004F80002C0295F01C0295D04FD1AC0213320F420
:10050800A885B985119709F409C0531710F000FFA1
:1005180001C013C020E207FF0BC020E3006102FF07
:1005280007C00B7F4A930E942303503009F05150B3
:100538000E941603503009F051503150A885B985F2
:10054800129708F0B5CF00FF08C0503031F0515075
:10055800E0E2EA930E942303F8CF10E0E0CEAC85F6
:10056800BD850E9459030E946D0364960895FF9209
:10057800F82E26970E9468030E943B03309719F4CF
:10058800EFEFFFEF23C0DE0116960E944C038D01AA
:100598000E943B03EE83FF83E0E0E887E987DE0102
:1005A8001A960E944C030E945903FA93EA931A93ED
:1005B8000A93E7E4F1E0FA93EA93DE011A96A3DEE0
:1005C8009F01AE81BF81E0E0EC93F9010E946F03C7
:1005D8002A96FF900895BA93AA93A991B991EE2704
:1005E800FF276D91662311F03196FBCF0895BA93DA
:1005F800AA93AA27BB27E991F9910590002011F049
:100608001196FBCFFD0108950E94CE00A3E0B0E053
:100618000C944203A0E30E94BA0088EC90E0019792
:10062800F1F708952A93AD85BE85EF85F889099578
:100638000895E889F9893497E88BF98B0895AD8591
:10064800BE85EF85F88909950895A889B989149612
:100658000E945903EE83FF83AE81BF810895A88964
:10066800B98914960E945903EA87FB870895DE0129
:100678001C960E944C030E9459030895109639F065
:1006880080ED97E00197F1F7A8951197C9F70895BC
:100698000024AF0DB01D0895F195E195F04008953F
:1006A8006F2F660F660B762F0895ED91FC911197C9
:1006B80008950590F491E02D08957A936A93FA933A
:1006C800EA9308955A934A933A932A931A930A936A
:1006D80008955D814C813B812A81198108810895A3
:00000001FF
