:080000000C9437000C94000081
:100008000C9400000C9400000C9400000C94000068
:100018000C9400000C9400000C9400000C94000058
:100028000C9400000C9400000C9400000C94000048
:100038000C9400000C9400000C9400000C94000038
:100048000C9400000C9400000C940000436F6D7039
:100058006C657465640080C00A0060025400020088
:100068006A025E000000F894EE27ECBBF1E0FBBFEB
:10007800EBBFE5BF8DE0A2E0BB27ED938A95E9F7DA
:1000880080E098E0A0E6ED930197E9F7E0E6F0E07C
:1000980085919591009761F0A591B591059015907E
:1000A800BF01F00105900D920197E1F7FB01F0CF38
:1000B800EFE5EDBFE8E0EEBFC0E6D2E00C946B00E0
:1000C800AA93E881EFB9779BFECFEFB1C1C026971D
:1000D800E8E6E883E5E6E983ECE6EA83EB83EFE626
:1000E800EC83E1E2ED8300E010E0E0E0EABBEBBB8B
:1000F800E0EBE7BBE0E0E8BBE4BBE5BBE1BBE2BBB0
:10010800E3E5EDB9E0E0EEB9A0E179D0E6E0F0E0B2
:10011800E017F10729F4A0E6B2E060D00FEF1FEF77
:10012800EFEFFFEFE017F10759F0DE01A00FB11F65
:10013800AC91C6DF0F5F1F4FA2E3B0E00E943A0107
:10014800E5CFFFCFAA93E5B3EF70AE2FE881E07F4C
:10015800EA2BE5BB8DE08A95F1F7AA9A8DE08A959E
:10016800F1F7AA988DE08A95F1F772C0AA93A88151
:10017800E9DFE881E295E883A881E4DF85E88A95EC
:10018800F1F766C0AA93E881F0E0E659FD4FE081F7
:10019800A981AE0FEBDF5980488022960895A2E02E
:1001A80059D0ACE0E3DFA1E055D0E0E04E2E5E2E62
:1001B8000895AA93A881AA3011F0571448F0E0E0F6
:1001C800EA934394A42DDEDFA881AA3009F440C045
:1001D8005394A89AA881CADFA8983AC0BA93AA9358
:1001E8001A93A981BA81ED91A983BA831E2FE030B1
:1001F80019F0A12FDEDFF5CF188123960895AA9371
:10020800E4B3E06FE4BBA29AA09AA19AAA98A8982E
:10021800A9987880E881E058E0936C02E881E0547E
:10022800E0936D02A4E1B0E00E943A0118D017D023
:1002380016D0A0E287DF88EC90E00197F1F7A8E2FA
:1002480095DFA4E093DFA5E891DFA6E08FDFA7DFC5
:10025800219608958BDFA3E0B0E00C943A01A0E367
:1002680071DF88EC90E00197F1F70895109639F066
:1002780080ED97E00197F1F7A8951197C9F70895D0
:00000001FF
