:0E0000000C9447000C9474000C9475000C9442
:10000E0000000C9400000C9400000C9400000C9462
:10001E0000000C9400000C9400000C9477000C94DB
:10002E0076000C9400000C9400000C9400000C94CC
:10003E0000000C9400000C9400000C9400000C9432
:10004E0000000C9400001027E80364000A00010071
:10005E000010000110000100000000000000000070
:10006E00253032643A253032643A2530326400004D
:10007E0080C0080004006600020074027E000000CA
:10008E00F894EE27ECBBF1E0FBBFEBBFE5BF8DE0D4
:10009E00A2E0BB27ED938A95E9F780E098E0A0E611
:1000AE00ED930197E9F7E0E8F0E0859195910097DF
:1000BE0061F0A591B59105901590BF01F0010590E5
:1000CE000D920197E1F7FB01F0CFEFE5EDBFE8E010
:1000DE00EEBFC0E6D2E00C94CF0018951895189597
:1000EE000A921A92FA926A937A938A939A93AA939D
:1000FE00BA93EA93FA93EFB7EA93F50131965F015B
:10010E00EAE0F0E0EA15FB05A9F5F40131964F019E
:10011E00AA24BB24ECE3F0E0E815F90579F4F30129
:10012E0031963F0188249924ECE3F0E0E615F705BB
:10013E0029F4F20131962F0166247724E0E6F2E0ED
:10014E00FA93EA93EEE6F0E0FA93EA93F2010E9454
:10015E003F03F3010E943F03F4010E943F038CE032
:10016E000E94F2026096E0E0EA93A0E051D0A0E691
:10017E00B2E07ED0E991EFBFF991E991B991A991E1
:10018E009991899179916991F990199009901895A1
:10019E00E1E0EABBE0E0EBBBE7BBE8BBE4BBE5BB01
:1001AE00E1BBE2BBEDE0E3BFE0E0E2BFE0E6ECBFC7
:1001BE00E3E0E9BFEBB7E06CEBBFEDE0E5BFE0E0FD
:1001CE00E4BFE0ECEABFA0E164D07894FFCFFFCFAC
:1001DE00AA93E5B3EF70AE2FE881E07FEA2BE5BB83
:1001EE0082E08A95F1F7AA9A82E08A95F1F7AA98A9
:1001FE0082E08A95F1F779C0AA93A881E9DFE881B8
:10020E00E295E883A881E4DF81E18A95F1F76DC07C
:10021E00AA93E881F0E0EC58FD4FE081A981AE0F82
:10022E00EBDFD980C88022960895A2E00E94440395
:10023E00ACE0E2DFA1E00E944403E0E0CE2EDE2E31
:10024E000895AA93A881AA3021F0E0917802DE16D3
:10025E0048F0E0E0EA93C394AC2DDADFA881AA302F
:10026E0009F443C0D394A89AA881C6DFA8983DC0CC
:10027E00BA93AA931A93A981BA81ED91A983BA83ED
:10028E001E2FE03019F0A12FDCDFF5CF1881239659
:10029E000895AA93E4B3E06FE4BBA29AA09AA19A40
:1002AE00AA98A898A998E881E0937802E058E0937C
:1002BE007602E881E054E0937702A4E1B0E00E9478
:1002CE007D030E944A030E944A030E944A03A0E251
:1002DE007FDF81E28A95F1F7A8E28EDFA4E08CDF62
:1002EE00A5E88ADFA6E088DFA0DF21960895BA93FD
:1002FE00AA931A930A93AA81BB8112960E94940321
:10030E00309759F1AA81BB8114960E9494038F01F4
:10031E00309761F00230E0E01E0798F0F801319757
:10032E008F01AA81BB811496ED93FC93AA81BB81A8
:10033E001296ED91FD913196FE93EE933197AC812D
:10034E00A083AA81BB810E949403FF232AF0ED9122
:10035E00FD913196FE93EE9306C0AA81BB81EFEF1D
:10036E00FFEFED93FC931981088125960895BA93BA
:10037E00AA9326970E94A10310E0AC85BD85E0E00C
:10038E00F0E0ED93FC93EA89FB893196EA8BFB8BC7
:10039E003197E4912E2FE03009F415C1E12FE030B2
:1003AE0039F4253211F411E002C00E9451030AC142
:1003BE00E130A9F4253219F40E94510302C112E072
:1003CE0040E000E02D3211F401E0FCC02B3211F4BC
:1003DE004BE2F8C0203211F440E2F4C002C0E23029
:1003EE0039F450E013E0203311F40068EBC003C081
:1003FE00E33009F0E7C0203310F02A3308F007C0CD
:10040E00AAE05A9F502DE22FE0535E0FDBC0E22F81
:10041E00E33649F40E945803E889F989A481AA9326
:10042E000E945E03CEC0E33741F40E9458030E943F
:10043E0064030E9426031E2F0AC0E03761F40E9457
:10044E0058030E9464030E9432031E2F086002604C
:10045E000F7730E034C0E43611F0E93611F4046061
:10046E0002C0E53731F4E4E5F0E0EE83FF8315E0FA
:10047E000CC0E83511F4086003C0E83709F0A1C0DC
:10048E00EEE5F0E0EE83FF8314E002FF14C00E945D
:10049E0058030E946E03AB85AA233AF4EA85FB85C6
:1004AE000E948B03EA87FB874DE2403011F01F5FFD
:1004BE0001C00B7F04C00E9458030E946E0300FD12
:1004CE0011C0151778F407FF08C002FF04C00B7F98
:1004DE00242F115001C020E301C020E20E945103DD
:1004EE005150EFCF312F01FF17C03030A1F003FF75
:1004FE0006C0EE81FF812591EE83FF8305C0AE819C
:10050E00BF812D91AE83BF830E945103503009F0FD
:10051E0051503150EACF4BC020E3EE81FF810E9453
:10052E009803E887F987EE81FF813296EE83FF8389
:10053E00E885F985AA85BB85AE17BF0750F02F5FFA
:10054E00A885B985EA85FB85EA1BFB0BEA87FB8745
:10055E00EFCF2A3328F003FF02C0295F01C0295DC7
:10056E0004FD1AC0213320F4A885B985119709F42A
:10057E0009C0531710F000FF01C013C020E207FF9F
:10058E000BC020E3006102FF07C00B7F4A930E945D
:10059E005E03503009F051500E945103503009F063
:1005AE0051503150A885B985129708F0B5CF00FF8C
:1005BE0008C0503031F05150E0E2EA930E945E03E1
:1005CE00F8CF10E0E0CEAC85BD850E9494030E946A
:1005DE00A80364960895FF92F82E26970E94A3030F
:1005EE000E947603309719F4EFEFFFEF23C0DE0180
:1005FE0016960E9487038D010E947603EE83FF8379
:10060E00E0E0E887E987DE011A960E9487030E94E0
:10061E009403FA93EA931A930A93EEE7F1E0FA93AE
:10062E00EA93DE011A96A3DE9F01AE81BF81E0E060
:10063E00EC93F9010E94AA032A96FF900895BA93AB
:10064E00AA93A991B991EE27FF276D91662311F018
:10065E003196FBCF0895BA93AA93AA27BB27E991A7
:10066E00F9910590002011F01196FBCFFD01089530
:10067E000E948F030E949C0308950E940301A3E031
:10068E00B0E00C947D03A0E30E94EF0081E28A9516
:10069E00F1F708952A93AD85BE85EF85F889099502
:1006AE000895E889F9893497E88BF98B0895AD851B
:1006BE00BE85EF85F88909950895A889B98914969C
:1006CE000E949403EE83FF83AE81BF810895A889B3
:1006DE00B98914960E949403EA87FB870895DE0178
:1006EE001C960E9487030E9494030895109639F079
:1006FE008AEF90E00197F1F7A8951197C9F7089541
:10070E000024AF0DB01D0895F195E195F0400895C8
:10071E006F2F660F660B762F0895ED91FC91119752
:10072E0008950590F491E02D08957A936A93FA93C3
:10073E00EA9308955A934A933A932A931A930A93F3
:10074E0008955D814C813B812A811981088108952C
:00000001FF
