:020000000C945E
:1000020043000C9470000C9479000C9400000C9442
:1000120000000C9400000C9400000C9400000C945E
:1000220000000C9400000C9400000C948D000C94C1
:1000320000000C9400000C9400000C9400000C943E
:1000420000000C9400000C9400000C9400000C942E
:1000520000001027E80364000A00010000100001FC
:1000620010000100000000000000253032643A2533
:100072003032640080C0060004006600020088027C
:1000820076000000F894EE27ECBBF1E0FBBFEBBF7B
:10009200E5BF8DE0A2E0BB27ED938A95E9F780E00A
:1000A20098E0A0E6ED930197E9F7E8E7F0E08591A3
:1000B2009591009761F0A591B59105901590BF01BA
:1000C200F00105900D920197E1F7FB01F0CFEFE50A
:1000D200EDBFE8E0EEBFC0E6D2E00C94DC00EA93AC
:1000E200EFB769B2772486B29924EFBFE9911895E8
:1000F200EA93FA93EFB7EA93E1E0F0E0EA15FB0541
:1001020019F4AA24BB2403C0E1E0F0E05F01E99105
:10011200EFBFF991E99118950A921A92FA926A93AD
:100122007A938A939A93AA93BA93EA93FA93EFB73C
:10013200EA93E3E8E2BF0A2C0B2809F5F2013196B3
:100142002F01E8EEF3E0E415F50539F4F3013196F9
:100152003F01442455240E946703ECE3F0E06E164D
:100162007F062CF0F40131964F0166247724ECE3EC
:10017200F0E08E169F0614F08824992402C00E9493
:10018200670300240814090421F400240614070458
:1001920009F002C0979A01C09798E991EFBFF991CF
:1001A200E991B991A9919991899179916991F9907E
:1001B200199009901895E0E0EABBEBBBE7BBE8BBFE
:1001C200EFEFE4BBE0E0E5BBE0E8E1BBE0E0E2BB8F
:1001D200E2E0E3BFE3E8E2BFE0E0ECBFEFBDEEBD8B
:1001E200EDBDECBDE7BDE6BDEBBDEABDE9BDE8BDD9
:1001F200E2BDE5BDE4BDE3BDE1E0E9BFEBB7E06C24
:10020200EBBFEFE0E5BFE0E0E4BFE0ECEABFE0E037
:10021200EAB9E0E8E8B9E0E0E0BFE6B9EDB9E6BF87
:10022200A8E00E9420037894FFCFFFCFBA93AA934D
:100232001A930A93AA81BB8112960E94D603309721
:1002420059F1AA81BB8114960E94D6038F0130977F
:1002520061F00230E0E01E0798F0F80131978F015B
:10026200AA81BB811496ED93FC93AA81BB8112965D
:10027200ED91FD913196FE93EE933197AC81A0837F
:10028200AA81BB810E94D603FF232AF0ED91FD9142
:100292003196FE93EE9306C0AA81BB81EFEFFFEF8A
:1002A200ED93FC931981088125960895BA93AA9338
:1002B20026970E94E30310E0AC85BD85E0E0F0E004
:1002C200ED93FC93EA89FB893196EA8BFB8B31979C
:1002D200E4912E2FE03009F415C1E12FE03039F41A
:1002E200253211F411E002C00E9486030AC1E130F6
:1002F200A9F4253219F40E94860302C112E040E0FB
:1003020000E02D3211F401E0FCC02B3211F44BE27B
:10031200F8C0203211F440E2F4C002C0E23039F4F5
:1003220050E013E0203311F40068EBC003C0E33067
:1003320009F0E7C0203310F02A3308F007C0AAE022
:100342005A9F502DE22FE0535E0FDBC0E22FE336BF
:1003520049F40E948D03E889F989A481AA930E9435
:100362009303CEC0E33741F40E948D030E949903A8
:100372000E944E031E2F0AC0E03761F40E948D03D3
:100382000E9499030E945A031E2F086002600F7791
:1003920030E034C0E43611F0E93611F4046002C0F2
:1003A200E53731F4E4E5F0E0EE83FF8315E00CC0BD
:1003B200E83511F4086003C0E83709F0A1C0EEE5A2
:1003C200F0E0EE83FF8314E002FF14C00E948D036D
:1003D2000E94A303AB85AA233AF4EA85FB850E9417
:1003E200CD03EA87FB874DE2403011F01F5F01C069
:1003F2000B7F04C00E948D030E94A30300FD11C065
:10040200151778F407FF08C002FF04C00B7F242FE2
:10041200115001C020E301C020E20E948603515026
:10042200EFCF312F01FF17C03030A1F003FF06C01C
:10043200EE81FF812591EE83FF8305C0AE81BF81EE
:100442002D91AE83BF830E948603503009F0515034
:100452003150EACF4BC020E3EE81FF810E94DA03E4
:10046200E887F987EE81FF813296EE83FF83E88584
:10047200F985AA85BB85AE17BF0750F02F5FA88507
:10048200B985EA85FB85EA1BFB0BEA87FB87EFCF81
:100492002A3328F003FF02C0295F01C0295D04FD51
:1004A2001AC0213320F4A885B985119709F409C02F
:1004B200531710F000FF01C013C020E207FF0BC06A
:1004C20020E3006102FF07C00B7F4A930E9493035F
:1004D200503009F051500E948603503009F05150BB
:1004E2003150A885B985129708F0B5CF00FF08C032
:1004F200503031F05150E0E2EA930E949303F8CF7A
:1005020010E0E0CEAC85BD850E94D6030E94EA03CE
:1005120064960895FF92F82E26970E94E5030E94A2
:10052200AB03309719F4EFEFFFEF23C0DE0116960D
:100532000E94C9038D010E94AB03EE83FF83E0E0BA
:10054200E887E987DE011A960E94C9030E94D60352
:10055200FA93EA931A930A93E7E1F1E0FA93EA93A2
:10056200DE011A96A3DE9F01AE81BF81E0E0EC932B
:10057200F9010E94EC032A96FF900895AA93E5B32D
:10058200EF70AE2FE881E07FEA2BE5BB82E08A952F
:10059200F1F7AA9A82E08A95F1F7AA9882E08A9501
:1005A200F1F779C0AA93A881E9DFE881E295E883AF
:1005B200A881E4DF81E18A95F1F76DC0AA93E88111
:1005C200F0E0E857FD4FE081A981AE0FEBDFD98063
:1005D200C88022960895A2E00E94B203ACE0E2DF56
:1005E200A1E00E94B203E0E0CE2EDE2E0895AA938F
:1005F200A881AA3021F0E0918C02DE1648F0E0E0FA
:10060200EA93C394AC2DDADFA881AA3009F443C07F
:10061200D394A89AA881C6DFA8983DC0BA93AA939A
:100622001A93A981BA81ED91A983BA831E2FE03072
:1006320019F0A12FDCDFF5CF188123960895AA9334
:10064200E4B3E06FE4BBA29AA09AA19AAA98A898F0
:10065200A998E881E0938C02E058E0938A02E8814D
:10066200E054E0938B02A4E1B0E00E94BF030E9439
:10067200B8030E94B8030E94B803A0E27FDF81E2C0
:100682008A95F1F7A8E28EDFA4E08CDFA5E88ADF85
:10069200A6E088DFA0DF21960895BA93AA93A991D4
:1006A200B991EE27FF276D91662311F03196FBCFAA
:1006B2000895BA93AA93AA27BB27E991F9910590C5
:1006C200002011F01196FBCFFD010895E0E6F2E063
:1006D200FA93EA93ECE6F0E0FA93EA93F4010E94CB
:1006E200D1030E94DE03F3010E94D1030E94DE03C4
:1006F20088E00E948B022C96E0E0EA93A0E00E9440
:10070200DF02A0E6B2E00C940F032A93AD85BE850A
:10071200EF85F88909950895E889F9893497E88B76
:10072200F98B0895AD85BE85EF85F8890995089501
:10073200A889B98914960E94D603EE83FF83AE81FD
:10074200BF810895A889B98914960E94D603EA87C1
:10075200FB870895DE011C960E94C9030E94D603FE
:1007620008950E94D302A3E0B0E00C94BF03A0E37B
:100772000E94BF0281E28A95F1F70895109639F03E
:100782008AEF90E00197F1F7A8951197C9F70895BC
:100792000024AF0DB01D0895F195E195F040089544
:1007A2006F2F660F660B762F0895ED91FC911197CE
:1007B20008950590F491E02D08957A936A93FA933F
:1007C200EA9308955A934A933A932A931A930A936F
:1007D20008955D814C813B812A81198108810895A8
:00000001FF
