:0E0000000C942F000C9400000C9400000C9443
:10000E0000000C9400000C9400000C9400000C9462
:10001E0000000C9400000C9400000C9400000C9452
:10002E0000000C945C000C9400000C9400000C94E6
:10003E0000000C9400000C9400000C9400000C9432
:10004E0000000C94000080C002006002540000000A
:10005E00F894EE27ECBBF1E0FBBFEBBFE5BF8DE004
:10006E00A2E0BB27ED938A95E9F780E098E0A0E641
:10007E00ED930197E9F7E6E5F0E08591959100970C
:10008E0061F0A591B59105901590BF01F001059015
:10009E000D920197E1F7FB01F0CFEFE5EDBFE8E040
:1000AE00EEBFC0E6D2E00C947D000A921A92FA924C
:1000BE006A937A938A939A93AA93BA93EA93FA934A
:1000CE00EFB7EA931A931FB1A12F0E94CA0019919C
:1000DE00E991EFBFF991E991B991A991999189911E
:1000EE0079916991F990199009901895E0E0EABB21
:1000FE00EBBBE0E4E7BBE0E0E8BBE4BBE5BBE1BBA8
:10010E00E2BBE7ECEDB9E0E0EEB9EEB1EFB1A0E1A4
:10011E004ED07894FFCFFFCFAA93E5B3EF70AE2FFA
:10012E00E881E07FEA2BE5BB8DE08A95F1F7AA9A8C
:10013E008DE08A95F1F7AA988DE08A95F1F760C067
:10014E00AA93A881E9DFE881E295E883A881E4DF3C
:10015E0085E88A95F1F754C0AA93E881F0E0E05A59
:10016E00FD4FE081A981AE0FEBDF598048802296CA
:10017E000895A2E047D0ACE0E3DFA1E043D0E0E099
:10018E004E2E5E2E0895AA93A881AA3011F0571410
:10019E0040F0E0E0EA934394A42DDEDFA881AA307C
:1001AE0079F15394A89AA881CBDFA89829C0AA9375
:1001BE00E4B3E06FE4BBA29AA09AA19AAA98A89879
:1001CE00A9987880E881E058E0936202E881E054D3
:1001DE00E0936302A4E1B0E00E94150118D017D09D
:1001EE0016D0A0E299DF88EC90E00197F1F7A8E233
:1001FE00A7DFA4E0A5DFA5E8A3DFA6E0A1DFB9DFB6
:10020E00219608959DDFA3E0B0E00C941501A0E3C4
:10021E0083DF88EC90E00197F1F70895109639F09E
:10022E0080ED97E00197F1F7A8951197C9F708951A
:00000001FF
