:100000000C942A000C944D000C9400000C940000F9
:100010000C9400000C9400000C9400000C94000060
:100020000C9400000C9400000C9400000C94000050
:100030000C9400000C9400000C9400000C94000040
:100040000C9400000C9400000C9400000C94000030
:100050000C940000F894EE27ECBBF1E0FBBFEBBF83
:10006000E5BF8DE0A2E0BB27ED938A95E9F780E03C
:1000700098E0A0E6ED930197E9F7EFE5EDBFE8E042
:10008000EEBFC0E6D2E00C946B00AA93E881EFB912
:10009000779BFECFEFB1219608950A921A92FA92B9
:1000A0006A937A938A939A93AA93BA93EA93FA9368
:1000B000EFB7EA93E9B3AE2FE8DFE991EFBFF9912B
:1000C000E991B991A9919991899179916991F99061
:1000D000199009901895E0E0EABBEBBBE0EBE7BBB9
:1000E000E0E0E8BBE4BBE5BBE1BBE2BBE3BFE2BFF2
:1000F000ECBFEFBDEEBDEDBDECBDE7BDE6BDEBBDBC
:10010000EABDE9BDE8BDE2BDE5BDE4BDE3BDE9BFD3
:10011000EBB7E064EBBFE1E0E5BFE0E0E4BFE0E4C3
:10012000EABFE0E0EAB9E0E8E8B9E0E0E0BFE6B95C
:10013000E3E5EDB9E0E0EEB9E6BF7894FFCFFFCF9D
:00000001FF
