:040000000C943B0021
:100004000C9400000C9400000C9400000C9400006C
:100014000C9400000C9400000C9400000C9400005C
:100024000C9400000C9400000C9400000C9400004C
:100034000C9400000C9400000C9468000C947F0055
:100044000C9400000C9400000C9400000C9400002C
:100054001027E80364000A000100001000011000EA
:100064000100000000000000000008000400660019
:100074000000F894EE27ECBBF1E0FBBFEBBFE5BF5B
:100084008DE0A2E0BB27ED938A95E9F780E098E044
:10009400A0E6ED930197E9F7EEE6F0E085919591FE
:1000A400009761F0A591B59105901590BF01F001FD
:1000B40005900D920197E1F7FB01F0CFEFE5EDBF5D
:1000C400E8E0EEBFC0E6D2E00C94AC00EA93FA9309
:1000D400EFB7EA93BB2061F0BA94E82D8394F0E083
:1000E400E05AFD4FE081ECB9E8E0E81509F4882412
:1000F400E991EFBFF991E99118958A93AA93BA937C
:10010400EA93FA93EFB7EA93E0916C02A8E6B2E0BF
:10011400F0E0EE0FFF1FAE0FBF1FE4B1F5B1ED939A
:10012400FC93A0916C02AF5FA0936C02A23018F014
:10013400E0E0E0936C02E0916C02E7B98BE18A9510
:10014400F1F7369AE991EFBFF991E991B991A99143
:1001540089911895E0E0EABBEBBBE7BBE8BBE4BBE5
:10016400E5BBE1BBE2BBE3BFE2BFECBFEFBDEEBD6D
:10017400EDBDECBDE7BDE6BDEBBDEABDE9BDE8BD47
:10018400E2BDE5BDE4BDE3BDE9BFE5BFE4BFEBB956
:10019400E8E4EAB9E6E8E0BDE0E0E0BDE3E3E9B9BC
:1001A400E0E8E8B9E0E0E7B9EBECE6B9E0E0E0BFAD
:1001B400EDB9E6BF78940E9400010E940901AE2FB8
:1001C400F301B0E0EA23FB23309731F0E0916A02B7
:1001D400ECB96624772410C00E9400010E940F012C
:1001E400AE2FF3010E941501EA2331F0E0916A0277
:1001F400ECB9E1E0F0E03F01DECFFFCFA0916A026D
:10020400B0916B02E0916802F09169020895AE1713
:10021400BF07E1E008F0EE270895EA17FB07E1E0E5
:1002240008F0EE270895EF2BE1E009F0E0E00895EF
:00000001FF
