:080000000C943E000C9400007A
:100008000C9400000C9400000C9400000C94000068
:100018000C9400000C9400000C9400000C94000058
:100028000C9400000C9478000C9400000C940000D0
:100038000C9400000C9400000C9400000C94000038
:100048000C9400000C9400000C9400001027E803A6
:1000580064000A0001000010000110000100FF0008
:100068000100000025640025640A00000600040061
:1000780066000000F894EE27ECBBF1E0FBBFEBBF95
:10008800E5BF8DE0A2E0BB27ED938A95E9F780E014
:1000980098E0A0E6ED930197E9F7E4E7F0E08591B1
:1000A8009591009761F0A591B59105901590BF01C4
:1000B800F00105900D920197E1F7FB01F0CFEFE514
:1000C800EDBFE8E0EEBFC0E6D2E00C94A500AA932D
:1000D800E881E7B983E08A95F1F7349BFECF349A3B
:1000E800E4B1F5B10C94EF000A921A92FA926A936D
:1000F8007A938A939A93AA93BA93EA93FA93EFB767
:10010800EA93A0E0E4DF3F010E9434050E94B104B5
:10011800DF01CB01ECEBF4E763E070E40E94DF045D
:100128000E947A043F01E991EFBFF991E991B991F1
:10013800A9919991899179916991F990199009906A
:100148001895E0E0EABBEBBBE7BBE8BBE4BBE5BB6B
:10015800E1BBE2BBE7E0E3BFE0E0E2BFECBFE1E028
:10016800E9BFE0E0EBB9E8E1EAB9E6E8E0BDE0E0E4
:10017800E0BDE6E0E9B9E0E0E7B9E1EAE6B9E0E8E0
:10018800E0BF7894ECE6F0E0FA93EA93E8E0F0E078
:1001980060E070E00E94490584E00E94A903269669
:1001A8004814590469F4EFE6F0E0FA93EA93F3018E
:1001B8000E9434050E94490584E00E943202269676
:1001C800E1CFFFCF5F9BFECFECB10895AA935D9B73
:1001D800FECFE881ECB921960895BA93AA93AA8133
:1001E800F5DFA881B981ED91FD913196FE93EE93EB
:1001F80023960895BA93AA9326970E944E0510E075
:10020800AC85BD85E0E0F0E0ED93FC93EA89FB89DD
:100218003196EA8BFB8B3197E4912E2FE03009F46D
:1002280015C1E12FE03039F4253211F411E002C094
:100238000E9402040AC1E130A9F4253219F40E948F
:10024800020402C112E040E000E02D3211F401E0A6
:10025800FCC02B3211F44BE2F8C0203211F440E21A
:10026800F4C002C0E23039F450E013E0203311F456
:100278000068EBC003C0E33009F0E7C0203310F09A
:100288002A3308F007C0AAE05A9F502DE22FE05306
:100298005E0FDBC0E22FE33649F40E940904E889C7
:1002A800F989A481AA930E940F04CEC0E33741F4D0
:1002B8000E9409040E9415040E94E9031E2F0AC027
:1002C800E03761F40E9409040E9415040E94F503B6
:1002D8001E2F086002600F7730E034C0E43611F05A
:1002E800E93611F4046002C0E53731F4E4E5F0E0E2
:1002F800EE83FF8315E00CC0E83511F4086003C0F5
:10030800E83709F0A1C0EEE5F0E0EE83FF8314E0E2
:1003180002FF14C00E9409040E941F04AB85AA238F
:100328003AF4EA85FB850E942805EA87FB874DE2B7
:10033800403011F01F5F01C00B7F04C00E94090408
:100348000E941F0400FD11C0151778F407FF08C0AC
:1003580002FF04C00B7F242F115001C020E301C00D
:1003680020E20E9402045150EFCF312F01FF17C045
:100378003030A1F003FF06C0EE81FF812591EE83A6
:10038800FF8305C0AE81BF812D91AE83BF830E94DC
:100398000204503009F051503150EACF4BC020E3ED
:1003A800EE81FF810E944505E887F987EE81FF818C
:1003B8003296EE83FF83E885F985AA85BB85AE175B
:1003C800BF0750F02F5FA885B985EA85FB85EA1B32
:1003D800FB0BEA87FB87EFCF2A3328F003FF02C025
:1003E800295F01C0295D04FD1AC0213320F4A885C6
:1003F800B985119709F409C0531710F000FF01C01F
:1004080013C020E207FF0BC020E3006102FF07C012
:100418000B7F4A930E940F04503009F051500E94FC
:100428000204503009F051503150A885B98512970F
:1004380008F0B5CF00FF08C0503031F05150E0E26D
:10044800EA930E940F04F8CF10E0E0CEAC85BD859A
:100458000E9441050E94550564960895FF92F82E62
:1004680026971A930A93DE0114960E9424058D019B
:10047800E0E0EC83ED83EE83EF83DE0118960E94C3
:100488002704E1EFF0E0FA93EA93DE011896B2DE72
:10049800198108812896FF900895BA93AA931A9310
:1004A800A981BA81E0E0EC93AB81BC81EC911E2F6D
:1004B800E03019F0E0E0EC9302C084DE1E2FE12F5B
:1004C800188125960895FF92BA93AA9324970E94BB
:1004D8004E05E0E0F0E0E887F9874E2FE889F989D2
:1004E8003196E88BF98B3197E4913E2FE03009F48F
:1004F80025C10E943004C1F0EDB7FEB7FA93EA9324
:100508004F930E9435044F913E2FE03019F00E941E
:10051800300409F407C00E943B041CF4EFEFFFEF1E
:100528000FC1EACF432F09C1353209F0EEC050E0C0
:10053800E889F9893591E88BF98B303310F03A3333
:1005480008F007C0AAE05A9F502DE32FE0535E0F32
:10055800EFCF303009F4F2C0EDB7FEB7FA93EA9363
:100568004F930E9435044F912E2FAE2F0E94CF0338
:10057800E03039F00E943B041CF4EFEFFFEFE0C0DD
:10058800EBCF203009F4D1C0422F503009F45FEF8F
:10059800E32FE33699F40E944004EDB7FEB7FA93CF
:1005A800EA934F930E9435044F91D801EC930E942F
:1005B8003B041CF4EFEFFFEFC3C0A1C0E33741F5E4
:1005C8000E944004E52F5150E030F1F0EDB7FEB73E
:1005D800FA93EA934F930E9435044F913E2FE030EF
:1005E80019F00E94300439F00E943B041CF4EFEF2C
:1005F800FFEFA6C009C01F930F930F5F1F4FE32F94
:10060800AF91BF91EC93DECFD801E0E0EC9377C0D7
:100618006894F1F8E894F2F8E32FE43611F0E9363B
:1006280019F4E894F1F802C0E53711F42AE008C09B
:10063800E83711F420E104C0E53209F466C07EC051
:10064800E0E0EE83EF836894F0F8E52F5150E03056
:1006580009F446C0EDB7FEB7FA93EA934F930E94A8
:1006680035044F913E2FE13238F40E943B041CF4CC
:10067800EFEFFFEF65C017C0F1FC08C06894F1F810
:100688003D3211F4F2F8E1CF3B32F9F2203131F486
:10069800A32F0E94DA03E03031F009C0A32F0E9493
:1006A800C603E03021F4F0FC49C0432F19C03136AD
:1006B80010F0375505C0313410F0375301C03053AE
:1006C800E22FAE81BF81F0E00E943905DF01E32F00
:1006D800F0E0EA0FFB1FEE83FF83E894F0F8B5CF54
:1006E8000E944004F2FE06C0EE81FF810E942805A8
:1006F800EE83FF83EE81FF81D801ED93FC93E885BB
:10070800F9853196E887F98718C0EDB7FEB7FA93EF
:10071800EA934F930E9435044F91E31771F00E94BA
:100728003B041CF4EFEFFFEF0BC0E885F985309729
:1007380019F4EFEFFFEF04C001C0D0CEE885F985CA
:100748000E9455056296FF900895FF92F82E239710
:100758001A930A93DE0111960E9424058D01E0E0A8
:10076800EB83EC83DE0115960E942704E1E5F2E0B5
:10077800FA93EA93DE011896A6DE19810881259678
:10078800FF900895AA93E1E0F991F03310F0FA335D
:1007980008F0EE270895AA93E1E0F991F03229F0E4
:1007A800F93010F0FE3008F0EE270895AA93E1E042
:1007B800F991F05340F0FA3038F0FF75F750FA30FD
:1007C80010F0F03108F0EE270895BA93AA93A99192
:1007D800B991EE27FF276D91662311F03196FBCF73
:1007E8000895BA93AA93AA27BB27E991F99105908E
:1007F800002011F01196FBCFFD0108952A93AD85D5
:10080800BE85EF85F88909950895E889F9893497AF
:10081800E88BF98B0895AD85BE85EF85F889099534
:100828000895A889B98914960E944105EE83FF832B
:10083800AE81BF810895A889B98914960E9441059F
:10084800EA87FB8708950E9424050E944105FA93D0
:10085800EA931A930A930895A32F0E94CF03E030D6
:100868000895AC85BD85EE85FF8509950895AA850F
:10087800BB85AC91A0300895EE85FF853497EE874F
:10088800FF87AE85BF8514960D911C910895552359
:1008980042F4503811F4E0FF04C03196691F791F03
:1008A8006BF050E8572711F45F9373C05F3F31F046
:1008B800660F000C57956795752F08955F93002074
:1008C8000AF073C06CC050E8192E1522880F991FC2
:1008D8009527550F879550E8072E0522660F771F35
:1008E8007527550F67950895689401C0E8945F933C
:1008F800F2DF703818F07F3F08F44BC056E1571B01
:10090800AAF4519558300EF4593030F0EFEFFFEF5C
:100918006FEF7FE777F91AC077275523B9F0EE0F05
:10092800FF1F661F771F5A95D1F710C077275830D9
:1009380028F0EF2FF62F672F5850F9CF552331F0B5
:1009480076956795F795E7955A95D1F700200AF4BB
:100958007FD05F910895689401C0E8943097604013
:100968007040B1F0002426F0772312F4009470D080
:10097800172E7EE1112032F07A95EE0FFF1F661FC9
:10098800111CF9CFEF2FF62F612D5F938ADF5F914E
:100998000895EE27FF27662777275F910895EFEFE1
:1009A800FFEF6FE77FEF5F910895EFEFFFEF6FE7DE
:1009B8007FE75F9108955F9386DF703821F41120F7
:1009C8000AF4EDCFF2CF903809F4E3CF012408946C
:1009D800970B1BF4D4F30020F3CF792F1F932F9399
:1009E8003F934F9311241127222733274427552754
:1009F80090E2AE17BF078607410730F0AE1BBF0B6A
:100A0800860B410B089401C08894551F221F331F81
:100A1800111CAA1FBB1F881F441F9A9551F7F90183
:100A2800612D4F913F912F911F91662332F0550F01
:100A3800EE1FFF1F661F7A9543F229DF5F91089525
:100A48000024AF0DB01D0895F195E195F04008958B
:100A5800F09560957095E195FF4F6F4F7F4F089522
:100A68006F2F660F660B762F0895FA9FF02DEB9F78
:100A7800F00DEA9FE02DF10D0895ED91FC9111978D
:100A880008950590F491E02D08957A936A93FA9366
:100A9800EA9308955A934A933A932A931A930A9396
:100AA80008955D814C813B812A81198108810895CF
:00000001FF
