:060000000C943E000C947C
:1000060000000C9400000C9400000C9400000C946A
:1000160000000C9400000C9400000C9400000C945A
:1000260000000C9400000C9400000C9400000C944A
:1000360000000C9400000C9400000C9400000C943A
:1000460000000C946B000C9400000C940000102728
:10005600E80364000A00010000100001100001001E
:10006600FD000000000025640025640A000006006B
:10007600040066000000F894EE27ECBBF1E0FBBF3D
:10008600EBBFE5BF8DE0A2E0BB27ED938A95E9F7CC
:1000960080E098E0A0E6ED930197E9F7E4E7F0E069
:1000A60085919591009761F0A591B5910590159070
:1000B600BF01F00105900D920197E1F7FB01F0CF2A
:1000C600EFE5EDBFE8E0EEBFC0E6D2E00C947700C6
:1000D600EA93EFB7EA93E0E04599E1E06E2E7724E4
:1000E600E991EFBFE9911895E0E0EABBEBBBE7BB0E
:1000F600E8BBE4BBE5BBE0E8E1BBE0E0E2BBEBB9B3
:10010600E8E1EAB9E6E8E0BDE0E0E0BDE6E0E9B94D
:10011600E8E0E8B9E0E0E0BF78940E94C303481441
:10012600590481F4EFE6F0E0FA93EA93F3010E94B2
:1001360023040E94380484E00E94F30126960E945C
:10014600C30383BCEACFFFCF5F9BFECFECB108951C
:10015600AA935D9BFECFE881ECB921960895BA93E8
:10016600AA93AA81F5DFA881B981ED91FD91319617
:10017600FE93EE9323960895BA93AA9326970E9428
:100186003D0410E0AC85BD85E0E0F0E0ED93FC9326
:10019600EA89FB893196EA8BFB8B3197E4912E2F06
:1001A600E03009F415C1E12FE03039F4253211F4BD
:1001B60011E002C00E94D2030AC1E130A9F425323F
:1001C60019F40E94D20302C112E040E000E02D3291
:1001D60011F401E0FCC02B3211F44BE2F8C02032DE
:1001E60011F440E2F4C002C0E23039F450E013E00A
:1001F600203311F40068EBC003C0E33009F0E7C018
:10020600203310F02A3308F007C0AAE05A9F502D79
:10021600E22FE0535E0FDBC0E22FE33649F40E9483
:10022600D903E889F989A481AA930E94DF03CEC085
:10023600E33741F40E94D9030E94E5030E94AA0312
:100246001E2F0AC0E03761F40E94D9030E94E5031D
:100256000E94B6031E2F086002600F7730E034C09C
:10026600E43611F0E93611F4046002C0E53731F4E2
:10027600E4E5F0E0EE83FF8315E00CC0E83511F409
:10028600086003C0E83709F0A1C0EEE5F0E0EE83B0
:10029600FF8314E002FF14C00E94D9030E94EF03FB
:1002A600AB85AA233AF4EA85FB850E941F04EA87F8
:1002B600FB874DE2403011F01F5F01C00B7F04C089
:1002C6000E94D9030E94EF0300FD11C0151778F4B0
:1002D60007FF08C002FF04C00B7F242F115001C086
:1002E60020E301C020E20E94D2035150EFCF312F0C
:1002F60001FF17C03030A1F003FF06C0EE81FF8179
:100306002591EE83FF8305C0AE81BF812D91AE831B
:10031600BF830E94D203503009F051503150EACFCA
:100326004BC020E3EE81FF810E943404E887F98701
:10033600EE81FF813296EE83FF83E885F985AA85F3
:10034600BB85AE17BF0750F02F5FA885B985EA8534
:10035600FB85EA1BFB0BEA87FB87EFCF2A3328F0E6
:1003660003FF02C0295F01C0295D04FD1AC02133C5
:1003760020F4A885B985119709F409C0531710F020
:1003860000FF01C013C020E207FF0BC020E300619D
:1003960002FF07C00B7F4A930E94DF03503009F02B
:1003A60051500E94D203503009F051503150A88567
:1003B600B985129708F0B5CF00FF08C0503031F06C
:1003C6005150E0E2EA930E94DF03F8CF10E0E0CE5E
:1003D600AC85BD850E9430040E944404649608954D
:1003E600FF92F82E26971A930A93DE0114960E941E
:1003F6001B048D01E0E0EC83ED83EE83EF83DE01E9
:1004060018960E94F703E2EBF0E0FA93EA93DE0116
:100416001896B2DE198108812896FF900895BA933E
:10042600AA931A93A981BA81E0E0EC93AB81BC81CF
:10043600EC911E2FE03019F0E0E0EC9302C084DE70
:100446001E2FE12F188125960895FF92BA93AA933D
:1004560024970E943D04E0E0F0E0E887F9874E2FFC
:10046600E889F9893196E88BF98B3197E4913E2F2B
:10047600E03009F425C10E940004C1F0EDB7FEB7D3
:10048600FA93EA934F930E9405044F913E2FE03072
:1004960019F00E94000409F407C00E940B041CF422
:1004A600EFEFFFEF0FC1EACF432F09C1353209F055
:1004B600EEC050E0E889F9893591E88BF98B303345
:1004C60010F03A3308F007C0AAE05A9F502DE32FE8
:1004D600E0535E0FEFCF303009F4F2C0EDB7FEB750
:1004E600FA93EA934F930E9405044F912E2FAE2F55
:1004F6000E949003E03039F00E940B041CF4EFEFE9
:10050600FFEFE0C0EBCF203009F4D1C0422F5030CE
:1005160009F45FEFE32FE33699F40E941004EDB778
:10052600FEB7FA93EA934F930E9405044F91D801C0
:10053600EC930E940B041CF4EFEFFFEFC3C0A1C0C5
:10054600E33741F50E941004E52F5150E030F1F0F9
:10055600EDB7FEB7FA93EA934F930E9405044F91C5
:100566003E2FE03019F00E94000439F00E940B047F
:100576001CF4EFEFFFEFA6C009C01F930F930F5FA8
:100586001F4FE32FAF91BF91EC93DECFD801E0E090
:10059600EC9377C06894F1F8E894F2F8E32FE43628
:1005A60011F0E93619F4E894F1F802C0E53711F4D0
:1005B6002AE008C0E83711F420E104C0E53209F466
:1005C60066C07EC0E0E0EE83EF836894F0F8E52F26
:1005D6005150E03009F446C0EDB7FEB7FA93EA93FE
:1005E6004F930E9405044F913E2FE13238F40E944A
:1005F6000B041CF4EFEFFFEF65C017C0F1FC08C059
:100606006894F1F83D3211F4F2F8E1CF3B32F9F299
:10061600203131F4A32F0E949B03E03031F009C052
:10062600A32F0E948703E03021F4F0FC49C0432F3A
:1006360019C0313610F0375505C0313410F0375334
:1006460001C03053E22FAE81BF81F0E00E94280442
:10065600DF01E32FF0E0EA0FFB1FEE83FF83E89450
:10066600F0F8B5CF0E941004F2FE06C0EE81FF81BD
:100676000E941F04EE83FF83EE81FF81D801ED9374
:10068600FC93E885F9853196E887F98718C0EDB7B8
:10069600FEB7FA93EA934F930E9405044F91E3172E
:1006A60071F00E940B041CF4EFEFFFEF0BC0E8851E
:1006B600F985309719F4EFEFFFEF04C001C0D0CEF3
:1006C600E885F9850E9444046296FF900895FF929A
:1006D600F82E23971A930A93DE0111960E941B04A3
:1006E6008D01E0E0EB83EC83DE0115960E94F703B3
:1006F600E2E1F2E0FA93EA93DE011896A6DE1981AA
:1007060008812596FF900895AA93E1E0F991F033C8
:1007160010F0FA3308F0EE270895AA93E1E0F99174
:10072600F03229F0F93010F0FE3008F0EE27089587
:10073600AA93E1E0F991F05340F0FA3038F0FF75F2
:10074600F750FA3010F0F03108F0EE270895BA931A
:10075600AA93A991B991EE27FF276D91662311F00F
:100766003196FBCF0895BA93AA93AA27BB27E9919E
:10077600F9910590002011F01196FBCFFD01089527
:10078600ECE6F0E0FA93EA93E8E0F0E060E070E08F
:100796000E94380484E00E946A03269608952A93EC
:1007A600AD85BE85EF85F88909950895E889F989AB
:1007B6003497E88BF98B0895AD85BE85EF85F8896A
:1007C60009950895A889B98914960E943004EE8384
:1007D600FF83AE81BF810895A889B98914960E94C6
:1007E6003004EA87FB8708950E941B040E943004A8
:1007F600FA93EA931A930A930895A32F0E949003FB
:10080600E0300895AC85BD85EE85FF850995089590
:10081600AA85BB85AC91A0300895EE85FF853497F7
:10082600EE87FF87AE85BF8514960D911C910895BE
:100836000024AF0DB01D0895F195E195F04008959F
:100846006F2F660F660B762F0895FA9FF02DEB9F9C
:10085600F00DEA9FE02DF10D0895ED91FC911197B1
:1008660008950590F491E02D08957A936A93FA938A
:10087600EA9308955A934A933A932A931A930A93BA
:1008860008955D814C813B812A81198108810895F3
:00000001FF
