:020000000C945E
:1000020050000C947D000C9400000C9400000C94A1
:1000120000000C9400000C9400000C9400000C945E
:1000220000000C9400000C9400000C9400000C944E
:1000320000000C9400000C9400000C9400000C943E
:1000420000000C9400000C9400000C9400000C942E
:1000520000001027E80364000A00010000100001FC
:100062001000010000000000000026007C002D00AE
:100072002B00256425632564203D20256400310082
:10008200300080C0060004006600020060028000AA
:100092000200620282000200910284000000F894D1
:1000A200EE27ECBBF1E0FBBFEBBFE5BF8DE0A2E0CA
:1000B200BB27ED938A95E9F780E098E0A0E6ED93FF
:1000C2000197E9F7E6E8F0E085919591009761F0F4
:1000D200A591B59105901590BF01F00105900D9283
:1000E2000197E1F7FB01F0CFEFE5EDBFE8E0EEBFEE
:1000F200C0E6D2E00C9439010A921A92FA926A93FB
:100102007A938A939A93AA93BA93EA93FA93EFB75C
:10011200EA93E0E0B099E1E06E2FA0E0B199A1E0AE
:10012200E2E0EA9FF0016E0FA0E0B299A1E0E4E004
:10013200EA9FF0016E0FA0E0B399A1E0E8E0EA9F28
:10014200F0016E0FA0E0B499A1E0E0E1EA9FF001B6
:10015200E60F4E2E5524E0E0CB99E1E06E2FA0E0B1
:10016200CC99A1E0E2E0EA9FF0016E0FA0E0CD9908
:10017200A1E0E4E0EA9FF0016E0FA0E0CE99A1E0D9
:10018200E8E0EA9FF0016E0FA0E0CF99A1E0E0E184
:10019200EA9FF001E60F6E2E7724B69B08C0F301AA
:1001A200E421F5210E94D703ECE6F0E013C0B79BEF
:1001B20008C0F301E429F5290E94D703EEE6F0E036
:1001C20009C0C99B0DC0F201E619F7090E94D703C5
:1001D200E0E7F0E0FA93EA9380E00E948A03249633
:1001E200C89B0DC0F301E40DF51D0E94D703E2E7A1
:1001F200F0E0FA93EA9380E00E948A032496E9E60B
:10020200F2E0FA93EA93E4E7F0E0FA93EA93F20178
:100212000E94DD03E0916402FF27662777270E9490
:100222006E04F3010E94DD03F4010E94DD0380E10C
:100232000E948A0364969AD0A9E6B2E0B8D0A0EDF3
:10024200B7E00E941B0492D0E0E0EA93A0E081D0E4
:10025200D40140D0E991EFBFF991E991B991A99107
:100262009991899179916991F990199009901895CC
:10027200E0E0EABBEBBBE7BBE8BBE4BBE5BBE1BB51
:10028200E2BBE3BFE2BFECBFEFBDEEBDEDBDECBD37
:10029200E7BDE6BDEBBDEABDE9BDE8BDE2BDE5BD3A
:1002A200E4BDE3BDE9BFEBB7E064EBBFE3E0E5BF6C
:1002B200E0E0E4BFE0E4EABFE0E0EAB9E0E8E8B9A0
:1002C200E0E0E0BFE6B9EDB9E6BFA8E081D07894FE
:1002D200FFCFFFCFBA93AA93A881B981129744F0B6
:1002E200A881B981E2E0F0E00E944504DF01F2DF7B
:1002F200A881B981E2E0F0E00E944A04E130A0E086
:10030200FA0719F4A0E6B2E002C0A2E6B2E04FD0CA
:100312002BC0AA93E5B3EF70AE2FE881E07FEA2B02
:10032200E5BB82E08A95F1F7AA9A82E08A95F1F715
:10033200AA9882E08A95F1F776C0AA93A881E9DFAC
:10034200E881E295E883A881E4DF81E18A95F1F70B
:100352006AC0AA93E881F0E0EF56FD4FE081A981DF
:10036200AE0FEBDFB980A88022960895A2E00E942A
:10037200E203ACE0E2DFA1E00E94E203E0E0AE2EA5
:10038200BE2E0895AA93A881AA3011F0BD1448F098
:10039200E0E0EA93A394AA2DDCDFA881AA3009F455
:1003A20042C0B394A89AA881C8DFA8983CC0BA9367
:1003B200AA931A93A981BA81ED91A983BA831E2FB8
:1003C200E03019F0A12FDEDFF5CF188123960895D2
:1003D200AA93E4B3E06FE4BBA29AA09AA19AAA9866
:1003E200A898A998D880E881E058E0939302E88120
:1003F200E054E0939402A4E1B0E00E941B040E9446
:10040200E8030E94E8030E94E803A0E282DF81E29F
:100412008A95F1F7A8E291DFA4E08FDFA5E88DDFEE
:10042200A6E08BDFA3DF21960895BA93AA931A93CD
:100432000A93AA81BB8112960E946604309759F1F1
:10044200AA81BB8114960E9466048F01309761F0E5
:100452000230E0E01E0798F0F80131978F01AA817F
:10046200BB811496ED93FC93AA81BB811296ED9108
:10047200FD913196FE93EE933197AC81A083AA81D0
:10048200BB810E946604FF232AF0ED91FD91319613
:10049200FE93EE9306C0AA81BB81EFEFFFEFED93CF
:1004A200FC931981088125960895BA93AA932697F9
:1004B2000E94730410E0AC85BD85E0E0F0E0ED93AE
:1004C200FC93EA89FB893196EA8BFB8B3197E491A5
:1004D2002E2FE03009F415C1E12FE03039F4253236
:1004E20011F411E002C00E94EF030AC1E130A9F445
:1004F200253219F40E94EF0302C112E040E000E04D
:100502002D3211F401E0FCC02B3211F44BE2F8C0A1
:10051200203211F440E2F4C002C0E23039F450E07B
:1005220013E0203311F40068EBC003C0E33009F09C
:10053200E7C0203310F02A3308F007C0AAE05A9F20
:10054200502DE22FE0535E0FDBC0E22FE33649F479
:100552000E94F603E889F989A481AA930E94FC0308
:10056200CEC0E33741F40E94F6030E9402040E94C7
:10057200BE031E2F0AC0E03761F40E94F6030E94F8
:1005820002040E94CA031E2F086002600F7730E047
:1005920034C0E43611F0E93611F4046002C0E537E4
:1005A20031F4E4E5F0E0EE83FF8315E00CC0E835BA
:1005B20011F4086003C0E83709F0A1C0EEE5F0E0ED
:1005C200EE83FF8314E002FF14C00E94F6030E9430
:1005D2000C04AB85AA233AF4EA85FB850E94290420
:1005E200EA87FB874DE2403011F01F5F01C00B7FAD
:1005F20004C00E94F6030E940C0400FD11C01517EE
:1006020078F407FF08C002FF04C00B7F242F1150AB
:1006120001C020E301C020E20E94EF035150EFCF5E
:10062200312F01FF17C03030A1F003FF06C0EE8169
:10063200FF812591EE83FF8305C0AE81BF812D919D
:10064200AE83BF830E94EF03503009F05150315006
:10065200EACF4BC020E3EE81FF810E946A04E88763
:10066200F987EE81FF813296EE83FF83E885F98573
:10067200AA85BB85AE17BF0750F02F5FA885B98545
:10068200EA85FB85EA1BFB0BEA87FB87EFCF2A3360
:1006920028F003FF02C0295F01C0295D04FD1AC0D2
:1006A200213320F4A885B985119709F409C053179D
:1006B20010F000FF01C013C020E207FF0BC020E3CF
:1006C200006102FF07C00B7F4A930E94FC03503077
:1006D20009F051500E94EF03503009F0515031504F
:1006E200A885B985129708F0B5CF00FF08C0503031
:1006F20031F05150E0E2EA930E94FC03F8CF10E09F
:10070200E0CEAC85BD850E9466040E947A046496A0
:100712000895FF92F82E26970E9475040E941404F1
:10072200309719F4EFEFFFEF23C0DE0116960E9417
:1007320025048D010E941404EE83FF83E0E0E88724
:10074200E987DE011A960E9425040E946604FA9344
:10075200EA931A930A93E6E1F2E0FA93EA93DE014E
:100762001A96A3DE9F01AE81BF81E0E0EC93F9010E
:100772000E947C042A96FF900895BA93AA93A991A5
:10078200B991EE27FF276D91662311F03196FBCFC9
:100792000895BA93AA93AA27BB27E991F9910590E4
:1007A200002011F01196FBCFFD0108954F01E4E600
:1007B200F2E0FA93EA9308950E942D040E946E04D7
:1007C20008950E949E01A3E0B0E00C941B04A0E3F4
:1007D2000E948A0181E28A95F1F708952A93AD85F4
:1007E200BE85EF85F88909950895E889F9893497D6
:1007F200E88BF98B0895AD85BE85EF85F88909955B
:100802000895A889B98914960E946604EE83FF832D
:10081200AE81BF810895A889B98914960E946604A1
:10082200EA87FB870895DE011C960E9425040E9438
:1008320066040895109639F08AEF90E00197F1F777
:10084200A8951197C9F708950024AF0DB01D08951A
:10085200F195E195F04008956F2F660F660B762FA4
:1008620008950024112490E1AA0FBB1F001C111C43
:100872000E1A1F0A18F40E0E1F1E01C0A1609A95CF
:1008820099F7FD01D001089512D0EBDF0EF4E0DFFD
:100892000895E894B7FF04C0A095B09511966894A6
:1008A200F7FDD6DFDEDFFD010EF4D2DF0895E89416
:1008B200F7FF02C0CDDF6894B7FF06C0A095B095E0
:1008C200119600F8039400FA0895ED91FC911197A6
:1008D20008950590F491E02D08957A936A93FA931E
:1008E200EA9308955A934A933A932A931A930A934E
:1008F20008955D814C813B812A8119810881089587
:00000001FF
