:060000000C9447000C9473
:1000060000000C9400000C9400000C9400000C946A
:1000160000000C9400000C9400000C9400000C945A
:1000260000000C9400000C9400000C9400000C944A
:1000360000000C9400000C9400000C9400000C943A
:1000460000000C9474000C9400000C94000010271F
:10005600E80364000A00010000100001100001001E
:1000660000002564000080C001002D4E414E00496D
:100076004E460000020004006600020092026C0078
:10008600010096026E000000F894EE27ECBBF1E04A
:10009600FBBFEBBFE5BF8DE0A2E0BB27ED938A95E2
:1000A600E9F780E098E0A0E6ED930197E9F7EAE743
:1000B600F0E085919591009761F0A591B591059035
:1000C6001590BF01F00105900D920197E1F7FB0134
:1000D600F0CFEFE5EDBFE8E0EEBFC0E6D2E00C946E
:1000E600B5000A921A92FA926A937A938A939A932D
:1000F600AA93BA93EA93FA93EFB7EA934CB8E0E679
:10010600F2E0FA93EA93E8E6F0E0FA93EA93F20172
:100116000E94CC040E94030584E00E94790228967E
:100126000E942203A0E6B2E00E944303E991EFBFDA
:10013600F991E991B991A9919991899179916991E9
:10014600F990199009901895AA93E881E7B983E088
:100156008A95F1F7369A349BFECF349AE4B1F5B11D
:100166000C947F03E0E0EABBEBBBE7BBE8BBE4BB78
:10017600E5BBE1BBE2BBE3BFE2BFECBFEFBDEEBD5B
:10018600EDBDECBDE7BDE6BDEBBDEABDE9BDE8BD35
:10019600E2BDE5BDE4BDE3BDE9BFE5BFE4BFEBB944
:1001A600E8E0EAB9E6E8E0BDE0E0E0BDE6E0E9B9AE
:1001B600E8E0E8B9E0E0E7B9E1EAE6B9E0E0E0BFA7
:1001C600EDB9E6BFA8E00E9454037894A0E0BCDF36
:1001D600A4EFB1E00E94D104DF01E2EFF3E00E9458
:1001E600D904662777270E943904DF01CB010E94D4
:1001F600DE020E9402042F01A8ECB0E00E94D303A5
:10020600E5CFFFCFBA93AA931A930A93AA81BB812B
:1002160012960E94EC04309759F1AA81BB8114967C
:100226000E94EC048F01309761F00230E0E01E0777
:1002360098F0F80131978F01AA81BB811496ED934E
:10024600FC93AA81BB811296ED91FD913196FE93A6
:10025600EE933197AC81A083AA81BB810E94EC0406
:10026600FF232AF0ED91FD913196FE93EE9306C0A1
:10027600AA81BB81EFEFFFEFED93FC931981088113
:1002860025960895BA93AA9326970E940D0510E025
:10029600AC85BD85E0E0F0E0ED93FC93EA89FB894F
:1002A6003196EA8BFB8B3197E4912E2FE03009F4DF
:1002B60015C1E12FE03039F4253211F411E002C006
:1002C6000E949A030AC1E130A9F4253219F40E946A
:1002D6009A0302C112E040E000E02D3211F401E081
:1002E600FCC02B3211F44BE2F8C0203211F440E28C
:1002F600F4C002C0E23039F450E013E0203311F4C8
:100306000068EBC003C0E33009F0E7C0203310F00B
:100316002A3308F007C0AAE05A9F502DE22FE05377
:100326005E0FDBC0E22FE33649F40E94A103E889A1
:10033600F989A481AA930E94A703CEC0E33741F4AA
:100346000E94A1030E94AD030E9481031E2F0AC0D2
:10035600E03761F40E94A1030E94AD030E948D0361
:100366001E2F086002600F7730E034C0E43611F0CB
:10037600E93611F4046002C0E53731F4E4E5F0E053
:10038600EE83FF8315E00CC0E83511F4086003C066
:10039600E83709F0A1C0EEE5F0E0EE83FF8314E054
:1003A60002FF14C00E94A1030E94B703AB85AA23D3
:1003B6003AF4EA85FB850E94C004EA87FB874DE292
:1003C600403011F01F5F01C00B7F04C00E94A103E3
:1003D6000E94B70300FD11C0151778F407FF08C087
:1003E60002FF04C00B7F242F115001C020E301C07F
:1003F60020E20E949A035150EFCF312F01FF17C020
:100406003030A1F003FF06C0EE81FF812591EE8317
:10041600FF8305C0AE81BF812D91AE83BF830E944D
:100426009A03503009F051503150EACF4BC020E3C7
:10043600EE81FF810E94F004E887F987EE81FF8153
:100446003296EE83FF83E885F985AA85BB85AE17CC
:10045600BF0750F02F5FA885B985EA85FB85EA1BA3
:10046600FB0BEA87FB87EFCF2A3328F003FF02C096
:10047600295F01C0295D04FD1AC0213320F4A88537
:10048600B985119709F409C0531710F000FF01C090
:1004960013C020E207FF0BC020E3006102FF07C084
:1004A6000B7F4A930E94A703503009F051500E94D7
:1004B6009A03503009F051503150A885B9851297EA
:1004C60008F0B5CF00FF08C0503031F05150E0E2DF
:1004D600EA930E94A703F8CF10E0E0CEAC85BD8575
:1004E6000E94EC040E94140564960895FF92F82E6B
:1004F60026970E940F050E94BF03309719F4EFEF6D
:10050600FFEF23C0DE0116960E94BC048D010E94F7
:10051600BF03EE83FF83E0E0E887E987DE011A96F2
:100526000E94BC040E94EC04FA93EA931A930A937D
:10053600E5E0F1E0FA93EA93DE011A96A3DE9F0165
:10054600AE81BF81E0E0EC93F9010E9416052A9680
:10055600FF9008950E9408057B816A81F981E881F0
:1005660077FB770F67FD7160972F9E5781F078F0C4
:10057600983190F4AA27BB27882708948795B795C2
:10058600A7959A95D1F7EA23FB23682305C0E8943B
:100596007727EE27FF2766276F77769508F460683A
:1005A60077F9A991B99189919991EA17FB0768079B
:1005B600790797FB08950E9408050E94F9040E9496
:1005C600AD020E94FE0419F40E94F40409C0E6F389
:1005D6000E94F404A0E0B0E080E89FE30E946C046F
:1005E60024960895AA93E5B3EF70AE2FE881E07FD5
:1005F600EA2BE5BB82E08A95F1F7AA9A82E08A9512
:10060600F1F7AA9882E08A95F1F776C0AA93A881B5
:10061600E9DFE881E295E883A881E4DF81E18A9554
:10062600F1F76AC0AA93E881F0E0EE56FD4FE0814B
:10063600A981AE0FEBDF7980688022960895A2E04B
:100646000E94C603ACE0E2DFA1E00E94C603E0E040
:100656006E2E7E2E0895AA93A881AA3011F07914E1
:1006660048F0E0E0EA936394A62DDCDFA881AA3087
:1006760009F442C07394A89AA881C8DFA8983CC020
:10068600BA93AA931A93A981BA81ED91A983BA83E1
:100696001E2FE03019F0A12FDEDFF5CF188123964B
:1006A6000895AA93E4B3E06FE4BBA29AA09AA19A34
:1006B600AA98A898A9989880E881E058E0939402AF
:1006C600E881E054E0939502A4E1B0E00E94D303F0
:1006D6000E94CC030E94CC030E94CC03A0E282DFDE
:1006E60081E28A95F1F7A8E291DFA4E08FDFA5E821
:1006F6008DDFA6E08BDFA3DF21960895BA93AA9338
:10070600A991B991EE27FF276D91662311F03196D5
:10071600FBCF0895BA93AA93AA27BB27E991F9912B
:100726000590002011F01196FBCFFD0108952A9344
:10073600AD85BE85EF85F88909950895E889F9891B
:100746003497E88BF98B0895AD85BE85EF85F889DA
:1007560009950895A889B98914960E94EC04EE8338
:10076600FF83AE81BF810895A889B98914960E9436
:10077600EC04EA87FB870895DE011C960E94BC0400
:100786000E94EC0408950E940903A3E0B0E00C94D3
:10079600D303A0E30E94F50281E28A95F1F708955A
:1007A600109639F08AEF90E00197F1F7A895119726
:1007B600C9F7089550E8572711F45F93C8C05F3F03
:1007C60031F0660F000C57956795752F08955F9366
:1007D60000200AF0C8C0C1C050E8192E1522880FA3
:1007E600991F9527550F879550E8072E0522660F06
:1007F600771F7527550F67950895689401C0E8948B
:100806005F93F2DF703818F07F3F08F4A0C056E11E
:10081600571BAAF4519558300EF4593030F0EFEFCB
:10082600FFEF6FEF7FE777F91AC077275523B9F007
:10083600EE0FFF1F661F771F5A95D1F710C0772757
:10084600583028F0EF2FF62F672F5850F9CF552341
:1008560031F076956795F795E7955A95D1F700208B
:100866000AF48FD05F910895689401C0E894309798
:1008760060407040B1F0002426F0772312F4009413
:1008860080D0172E7EE1112032F07A95EE0FFF1FF1
:10089600661F111CF9CFEF2FF62F612D5F938ADFAC
:1008A6005F9108954F93AF01FD01DA01AB01BC01E1
:1008B600CA01402D012C142E4F910895EA0FFB1FFB
:1008C600681F0895E095F0956095EF5FFF4F6F4FB5
:1008D60008955F9381DF903839F1703821F1572FF1
:1008E600591B2BF112F4DEDFFACF583118F0AA2784
:1008F600BB278827583028F0AB2FB82F88275850A9
:10090600F9CF552329F08695B795A7955A95D9F726
:10091600502D512572F0D2DF38F46795F795E7959B
:10092600739513F420C0BEDF45DF5F910895D8F7B5
:10093600FBCFEA1BFB0B680B51F010F40094C2DFEF
:10094600662392F3EE0FFF1F661F7A95CBF7EE270D
:10095600FF27662777275F910895EFEFFFEF6FE791
:100966007FEF5F910895EFEFFFEF6FE77FE75F910E
:1009760008950024AF0DB01D0895F195E195F0405E
:100986000895F09560957095E195FF4F6F4F7F4FF5
:1009960008956F2F660F660B762F0895FA9FF02D38
:1009A600EB9FF00DEA9FE02DF10D08950024112430
:1009B60090E1AA0FBB1F001C111C0E1A1F0A18F487
:1009C6000E0E1F1E01C0A1609A9599F7FD01D00178
:1009D6000895ED91FC91119708950590F491E02DFD
:1009E6000895E881F9816A817B810895A881B9819A
:1009F6008A819B810895E883F9836A837B830895BE
:100A06007A936A93FA93EA9308959A938A93BA9398
:100A1600AA9308955A934A933A932A931A930A9358
:100A260008955D814C813B812A8119810881089551
:00000001FF
